{
  "_format": "hh-sol-artifact-1",
  "contractName": "FlashloanManager",
  "sourceName": "contracts/FlashloanManager.sol",
  "abi": [
    {
      "inputs": [
        {
          "internalType": "address",
          "name": "provider",
          "type": "address"
        }
      ],
      "stateMutability": "nonpayable",
      "type": "constructor"
    },
    {
      "inputs": [],
      "name": "ADDRESSES_PROVIDER",
      "outputs": [
        {
          "internalType": "contract IPoolAddressesProvider",
          "name": "",
          "type": "address"
        }
      ],
      "stateMutability": "view",
      "type": "function"
    },
    {
      "inputs": [],
      "name": "POOL",
      "outputs": [
        {
          "internalType": "contract IPool",
          "name": "",
          "type": "address"
        }
      ],
      "stateMutability": "view",
      "type": "function"
    },
    {
      "inputs": [],
      "name": "USDC",
      "outputs": [
        {
          "internalType": "address",
          "name": "",
          "type": "address"
        }
      ],
      "stateMutability": "view",
      "type": "function"
    },
    {
      "inputs": [
        {
          "internalType": "address",
          "name": "asset",
          "type": "address"
        },
        {
          "internalType": "uint256",
          "name": "amount",
          "type": "uint256"
        },
        {
          "internalType": "uint256",
          "name": "premium",
          "type": "uint256"
        },
        {
          "internalType": "address",
          "name": "initiator",
          "type": "address"
        },
        {
          "internalType": "bytes",
          "name": "params",
          "type": "bytes"
        }
      ],
      "name": "executeOperation",
      "outputs": [
        {
          "internalType": "bool",
          "name": "",
          "type": "bool"
        }
      ],
      "stateMutability": "nonpayable",
      "type": "function"
    },
    {
      "inputs": [
        {
          "internalType": "uint256",
          "name": "amount",
          "type": "uint256"
        }
      ],
      "name": "requestFlashLoan",
      "outputs": [],
      "stateMutability": "nonpayable",
      "type": "function"
    },
    {
      "inputs": [
        {
          "internalType": "address",
          "name": "token",
          "type": "address"
        },
        {
          "internalType": "address",
          "name": "to",
          "type": "address"
        },
        {
          "internalType": "uint256",
          "name": "amount",
          "type": "uint256"
        }
      ],
      "name": "withdrawERC20",
      "outputs": [],
      "stateMutability": "nonpayable",
      "type": "function"
    }
  ],
  "bytecode": "0x60c080604052346100cf5760046020610712803803809161002082876100d4565b85396001600160a01b0393849161003a919081019061010d565b16806080526040519283809263026b1d5f60e01b82525afa9081156100c357600091610094575b501660a0526040516105e5908161012d823960805181610515015260a051818181609c015281816101fd01526103b00152f35b6100b6915060203d6020116100bc575b6100ae81836100d4565b81019061010d565b38610061565b503d6100a4565b6040513d6000823e3d90fd5b600080fd5b601f909101601f19168101906001600160401b038211908210176100f757604052565b634e487b7160e01b600052604160045260246000fd5b908160209103126100cf57516001600160a01b03811681036100cf579056fe608060408181526004908136101561001657600080fd5b600092833560e01c9081630542975c14610501575080631b11d0ff1461034357806344004cc11461022c5780637535d246146101e857806389a30271146101b55763a87eba3c1461006657600080fd5b346101b15760209160206003193601126101ad57815167ffffffffffffffff90602081018281118282101761019a5784528581527f00000000000000000000000000000000000000000000000000000000000000006001600160a01b031690813b156101965794869185519687926310ac2ddf60e21b8452308785015273af88d065e77c8cc2239327c5edb3a432268e583160248501528635604485015260a060648501528151918260a4860152855b83811061017c575050508360c484838383839684010152836084830152601f801991011681010301925af180156101725761014f578480f35b831161015f575052388080808480f35b634e487b7160e01b845260419052602483fd5b83513d87823e3d90fd5b8181018301518b820160c401528b96508a95508201610116565b8680fd5b634e487b7160e01b875260418452602487fd5b8380fd5b8280fd5b8382346101e457816003193601126101e4576020905173af88d065e77c8cc2239327c5edb3a432268e58318152f35b5080fd5b8382346101e457816003193601126101e457517f00000000000000000000000000000000000000000000000000000000000000006001600160a01b03168152602090f35b5090346101b15760603660031901126101b157610247610544565b602435906001600160a01b0390818316830361033f57169073af88d065e77c8cc2239327c5edb3a432268e583182146102fc57835163a9059cbb60e01b81526001600160a01b039091169281019283526044356020848101919091529093929091849182908790829060400103925af19081156102f357506102c7575080f35b6102e89060203d6020116102ec575b6102e0818361055f565b810190610597565b5080f35b503d6102d6565b513d84823e3d90fd5b835162461bcd60e51b8152602081850181905260248201527f43616e6e6f7420776974686472617720666c6173686c6f616e656420555344436044820152606490fd5b8580fd5b508290346101e45760a03660031901126101e45761035f610544565b602435906064356001600160a01b038181169182900361033f5760843567ffffffffffffffff8082116104fd57366023830112156104fd57818901359081116104fd573691016024011161033f57807f000000000000000000000000000000000000000000000000000000000000000016918233036104ba57300361047757604435840180941161046457845163095ea7b360e01b81526001600160a01b039290921687830190815260208082019590955291939284928390036040019183918891165af18015610458576020935061043b575b505160018152f35b61045190833d85116102ec576102e0818361055f565b5082610433565b505051903d90823e3d90fd5b634e487b7160e01b865260118752602486fd5b845162461bcd60e51b8152602081890152601f60248201527f496e69746961746f72206d757374206265207468697320636f6e7472616374006044820152606490fd5b855162461bcd60e51b81526020818a0152601860248201527f43616c6c6572206d757374206265204161766520506f6f6c00000000000000006044820152606490fd5b8780fd5b8490346101e457816003193601126101e4577f00000000000000000000000000000000000000000000000000000000000000006001600160a01b03168152602090f35b600435906001600160a01b038216820361055a57565b600080fd5b90601f8019910116810190811067ffffffffffffffff82111761058157604052565b634e487b7160e01b600052604160045260246000fd5b9081602091031261055a5751801515810361055a579056fea2646970667358221220ba85ff90bc3410e00188d267a11f9eebea3bd2886418abb1b7c208237a07510164736f6c63430008160033",
  "linkReferences": {},
  "deployedLinkReferences": {}
}