{
  "_format": "hh-sol-artifact-1",
  "contractName": "FlashloanArbitrage",
  "sourceName": "contracts/FlashloanArbitrage.sol",
  "abi": [
    {
      "inputs": [
        {
          "internalType": "address",
          "name": "provider",
          "type": "address"
        },
        {
          "internalType": "address",
          "name": "_swapRouter",
          "type": "address"
        }
      ],
      "stateMutability": "nonpayable",
      "type": "constructor"
    },
    {
      "inputs": [],
      "name": "ADDRESSES_PROVIDER",
      "outputs": [
        {
          "internalType": "contract IPoolAddressesProvider",
          "name": "",
          "type": "address"
        }
      ],
      "stateMutability": "view",
      "type": "function"
    },
    {
      "inputs": [],
      "name": "POOL",
      "outputs": [
        {
          "internalType": "contract IPool",
          "name": "",
          "type": "address"
        }
      ],
      "stateMutability": "view",
      "type": "function"
    },
    {
      "inputs": [],
      "name": "USDC",
      "outputs": [
        {
          "internalType": "address",
          "name": "",
          "type": "address"
        }
      ],
      "stateMutability": "view",
      "type": "function"
    },
    {
      "inputs": [],
      "name": "WETH",
      "outputs": [
        {
          "internalType": "address",
          "name": "",
          "type": "address"
        }
      ],
      "stateMutability": "view",
      "type": "function"
    },
    {
      "inputs": [
        {
          "internalType": "address",
          "name": "asset",
          "type": "address"
        },
        {
          "internalType": "uint256",
          "name": "amount",
          "type": "uint256"
        },
        {
          "internalType": "uint256",
          "name": "premium",
          "type": "uint256"
        },
        {
          "internalType": "address",
          "name": "initiator",
          "type": "address"
        },
        {
          "internalType": "bytes",
          "name": "params",
          "type": "bytes"
        }
      ],
      "name": "executeOperation",
      "outputs": [
        {
          "internalType": "bool",
          "name": "",
          "type": "bool"
        }
      ],
      "stateMutability": "nonpayable",
      "type": "function"
    },
    {
      "inputs": [
        {
          "internalType": "uint256",
          "name": "amount",
          "type": "uint256"
        }
      ],
      "name": "requestFlashLoan",
      "outputs": [],
      "stateMutability": "nonpayable",
      "type": "function"
    },
    {
      "inputs": [],
      "name": "swapRouter",
      "outputs": [
        {
          "internalType": "contract ISwapRouter",
          "name": "",
          "type": "address"
        }
      ],
      "stateMutability": "view",
      "type": "function"
    },
    {
      "inputs": [],
      "name": "withdrawAllUSDC",
      "outputs": [],
      "stateMutability": "nonpayable",
      "type": "function"
    }
  ],
  "bytecode": "0x60e080604052346100f357604081610cbe803803809161001f828561010c565b8339810103126100f35761003e602061003783610145565b9201610145565b6001600160a01b03918216608081905260405163026b1d5f60e01b815290602090829060049082905afa80156101005783916000916100bf575b501660a0521660c052604051610b64908161015a823960805181610972015260a05181818161013101528181610248015261049b015260c051818181609001526104cb0152f35b9150506020813d6020116100f8575b816100db6020938361010c565b810103126100f3576100ed8391610145565b38610078565b600080fd5b3d91506100ce565b6040513d6000823e3d90fd5b601f909101601f19168101906001600160401b0382119082101761012f57604052565b634e487b7160e01b600052604160045260246000fd5b51906001600160a01b03821682036100f35756fe608060408181526004918236101561001657600080fd5b600092833560e01c9182630542975c1461095e575081631b11d0ff1461042957816326df6e91146102775781637535d2461461023357816389a3027114610204578163a87eba3c146100f157508063ad5c4648146100c35763c31c9c071461007d57600080fd5b346100bf57816003193601126100bf57517f00000000000000000000000000000000000000000000000000000000000000006001600160a01b03168152602090f35b5080fd5b50346100bf57816003193601126100bf57602090517382af49447d8a07e3bd95bd0d56f35241523fbab18152f35b8383346100bf5760203660031901126100bf57805192602084019367ffffffffffffffff90808610828711176101f1578495845284815260018060a01b037f00000000000000000000000000000000000000000000000000000000000000001690813b156101ed5785916101a89186519788809481936310ac2ddf60e21b8352308a84015273af88d065e77c8cc2239327c5edb3a432268e583160248401528935604484015260a0606484015260a4830190610a2f565b82608483015203925af180156101e3576101c0578480f35b83116101d0575052818080808480f35b634e487b7160e01b845260419052602483fd5b83513d87823e3d90fd5b8580fd5b634e487b7160e01b855260418352602485fd5b5050346100bf57816003193601126100bf576020905173af88d065e77c8cc2239327c5edb3a432268e58318152f35b5050346100bf57816003193601126100bf57517f00000000000000000000000000000000000000000000000000000000000000006001600160a01b03168152602090f35b90503461042557826003193601126104255781516370a0823160e01b815230828201529160209173af88d065e77c8cc2239327c5edb3a432268e58318385602481845afa9485156103aa5786956103f6575b5084156103b457825163a9059cbb60e01b815233838201908152602081018790529091859183919082908a90829060400103925af19081156103aa57869161037d575b501561034557505161034292916e2bb4ba34323930bbb7102aa9a2219d60891b90610336836109d4565b600f8352820152610ad6565b80f35b82606492519162461bcd60e51b835282015260146024820152731554d110c81d1c985b9cd9995c8819985a5b195960621b6044820152fd5b61039d9150843d86116103a3575b61039581836109f0565b810190610a12565b3861030c565b503d61038b565b83513d88823e3d90fd5b5082606492519162461bcd60e51b8352820152601b60248201527f4e6f20555344432062616c616e636520746f20776974686472617700000000006044820152fd5b9094508381813d831161041e575b61040e81836109f0565b810103126101ed575193386102c9565b503d610404565b8280fd5b82843461095b5760a036600319011261095b576001600160a01b039083358281160361095b5760243591604435606435918083168093036109575760843567ffffffffffffffff8082116101ed57366023830112156101ed57818901359081116101ed573691016024011161095757807f000000000000000000000000000000000000000000000000000000000000000016928333036109145730036108d1577f0000000000000000000000000000000000000000000000000000000000000000169585519163095ea7b360e01b9081845260209884610521898387840160209093929193604081019460018060a01b031681520152565b03948a8173af88d065e77c8cc2239327c5edb3a432268e583197818b8a5af180156108c757908a92916108aa575b50846105bf8a8d8551610561816109a1565b8a81528c7382af49447d8a07e3bd95bd0d56f35241523fbab19788848401526101f494858285015230606085015242608085015260a08401528160c08401528160e084015251808096819463414bf38960e01b998a84528301610a6f565b0391885af19182156108a057908e858f94938f8f918d918d918498610853575b5088610641610667926106188b809d9c9b9c516105fb816109d4565b600c81526b022aa241020b6b7bab73a1d160a51b8c820152610ad6565b8251610623816109d4565b600d81526c02aa9a2219020b6b7bab73a1d1609d1b8a820152610ad6565b51968795869485948552840160209093929193604081019460018060a01b031681520152565b03918a5af1801561084957918f9593918f906106cb98969461082c575b50805195610691876109a1565b86528b8787015285015230606085015242608085015260a08401528a60c08401528a60e08401528a8d5180968195829483528b8301610a6f565b03925af180156108225787906107ef575b61070c915089516106ec816109d4565b600f81526e02aa9a221902932b1b2b4bb32b21d1608d1b8c820152610ad6565b8087018097116107dc578894939291610771879261074c8a8c5161072f816109d4565b600c81526b02a37ba30b6102232b13a1d160a51b8b820152610ad6565b8a51610757816109d4565b60098152680283932b6b4bab69d160bd1b89820152610ad6565b61079b8951988996879586948552840160209093929193604081019460018060a01b031681520152565b03925af19081156107d157506107b4575b505160018152f35b6107ca90833d85116103a35761039581836109f0565b50826107ac565b8351903d90823e3d90fd5b634e487b7160e01b865260118352602486fd5b508981813d831161081b575b61080581836109f0565b810103126108175761070c90516106dc565b8680fd5b503d6107fb565b89513d89823e3d90fd5b61084290883d8a116103a35761039581836109f0565b5038610684565b8e513d8e823e3d90fd5b9750505050505090925081813d8311610899575b61087181836109f0565b8101031261089557908b8e858f8b8f916106678d91610641995198979150986105df565b8a80fd5b503d610867565b8d513d8d823e3d90fd5b6108c0908c8d3d106103a35761039581836109f0565b508b61054f565b8a513d8a823e3d90fd5b855162461bcd60e51b8152602081890152601f60248201527f496e69746961746f72206d757374206265207468697320636f6e7472616374006044820152606490fd5b865162461bcd60e51b81526020818a0152601860248201527f43616c6c6572206d757374206265204161766520506f6f6c00000000000000006044820152606490fd5b8380fd5b80fd5b8490346100bf57816003193601126100bf577f00000000000000000000000000000000000000000000000000000000000000006001600160a01b03168152602090f35b610100810190811067ffffffffffffffff8211176109be57604052565b634e487b7160e01b600052604160045260246000fd5b6040810190811067ffffffffffffffff8211176109be57604052565b90601f8019910116810190811067ffffffffffffffff8211176109be57604052565b90816020910312610a2a57518015158103610a2a5790565b600080fd5b919082519283825260005b848110610a5b575050826000602080949584010152601f8019910116010190565b602081830181015184830182015201610a3a565b91909160e06101008201938160018060a01b039182815116855282602082015116602086015262ffffff60408201511660408601528260608201511660608601526080810151608086015260a081015160a086015260c081015160c0860152015116910152565b600091908291610b1b6040518092610b076020830195632d839cb360e21b8752604060248501526064840190610a2f565b90604483015203601f1981018352826109f0565b51906a636f6e736f6c652e6c6f675afa5056fea264697066735822122070c50aa14fea8295cac94fa95d5cb29cf8aefe70acebc92421c64b84f6f8fbae64736f6c63430008160033",
  "linkReferences": {},
  "deployedLinkReferences": {}
}