{
  "_format": "hh-sol-artifact-1",
  "contractName": "FlashloanArbitrage",
  "sourceName": "contracts/FlashloanArbitrage.sol",
  "abi": [
    {
      "inputs": [
        {
          "internalType": "address",
          "name": "provider",
          "type": "address"
        },
        {
          "internalType": "address",
          "name": "_swapRouter",
          "type": "address"
        }
      ],
      "stateMutability": "nonpayable",
      "type": "constructor"
    },
    {
      "inputs": [
        {
          "internalType": "address",
          "name": "owner",
          "type": "address"
        }
      ],
      "name": "OwnableInvalidOwner",
      "type": "error"
    },
    {
      "inputs": [
        {
          "internalType": "address",
          "name": "account",
          "type": "address"
        }
      ],
      "name": "OwnableUnauthorizedAccount",
      "type": "error"
    },
    {
      "anonymous": false,
      "inputs": [
        {
          "indexed": true,
          "internalType": "address",
          "name": "previousOwner",
          "type": "address"
        },
        {
          "indexed": true,
          "internalType": "address",
          "name": "newOwner",
          "type": "address"
        }
      ],
      "name": "OwnershipTransferred",
      "type": "event"
    },
    {
      "inputs": [],
      "name": "ADDRESSES_PROVIDER",
      "outputs": [
        {
          "internalType": "contract IPoolAddressesProvider",
          "name": "",
          "type": "address"
        }
      ],
      "stateMutability": "view",
      "type": "function"
    },
    {
      "inputs": [],
      "name": "POOL",
      "outputs": [
        {
          "internalType": "contract IPool",
          "name": "",
          "type": "address"
        }
      ],
      "stateMutability": "view",
      "type": "function"
    },
    {
      "inputs": [],
      "name": "USDC",
      "outputs": [
        {
          "internalType": "address",
          "name": "",
          "type": "address"
        }
      ],
      "stateMutability": "view",
      "type": "function"
    },
    {
      "inputs": [],
      "name": "WETH",
      "outputs": [
        {
          "internalType": "address",
          "name": "",
          "type": "address"
        }
      ],
      "stateMutability": "view",
      "type": "function"
    },
    {
      "inputs": [
        {
          "internalType": "address",
          "name": "asset",
          "type": "address"
        },
        {
          "internalType": "uint256",
          "name": "amount",
          "type": "uint256"
        },
        {
          "internalType": "uint256",
          "name": "premium",
          "type": "uint256"
        },
        {
          "internalType": "address",
          "name": "initiator",
          "type": "address"
        },
        {
          "internalType": "bytes",
          "name": "params",
          "type": "bytes"
        }
      ],
      "name": "executeOperation",
      "outputs": [
        {
          "internalType": "bool",
          "name": "",
          "type": "bool"
        }
      ],
      "stateMutability": "nonpayable",
      "type": "function"
    },
    {
      "inputs": [],
      "name": "owner",
      "outputs": [
        {
          "internalType": "address",
          "name": "",
          "type": "address"
        }
      ],
      "stateMutability": "view",
      "type": "function"
    },
    {
      "inputs": [],
      "name": "renounceOwnership",
      "outputs": [],
      "stateMutability": "nonpayable",
      "type": "function"
    },
    {
      "inputs": [
        {
          "internalType": "uint256",
          "name": "amount",
          "type": "uint256"
        }
      ],
      "name": "requestFlashLoan",
      "outputs": [],
      "stateMutability": "nonpayable",
      "type": "function"
    },
    {
      "inputs": [],
      "name": "swapRouter",
      "outputs": [
        {
          "internalType": "contract ISwapRouter",
          "name": "",
          "type": "address"
        }
      ],
      "stateMutability": "view",
      "type": "function"
    },
    {
      "inputs": [
        {
          "internalType": "address",
          "name": "newOwner",
          "type": "address"
        }
      ],
      "name": "transferOwnership",
      "outputs": [],
      "stateMutability": "nonpayable",
      "type": "function"
    },
    {
      "inputs": [],
      "name": "withdrawAllUSDC",
      "outputs": [],
      "stateMutability": "nonpayable",
      "type": "function"
    }
  ],
  "bytecode": "0x60e0604090808252346200017e57818162000eb3803803809162000024828562000183565b8339810103126200017e576200004860206200004083620001bd565b9201620001bd565b903315620001665760008054336001600160a01b031982168117835585516001600160a01b0395949092602092849260049284928a929183167f8be0079c531659141344cd1fd0a4f28419497f9722a3daafe3b4186f6b6457e08a80a316608081905263026b1d5f60e01b82525afa9182156200015b579081859362000111575b50501660a0521660c05251610ce09081620001d3823960805181610aac015260a0518181816101e70152818161032601526105d8015260c05181818161014401526106080152f35b915091506020823d60201162000152575b81620001316020938362000183565b810103126200014f5750620001478391620001bd565b3880620000c9565b80fd5b3d915062000122565b8551903d90823e3d90fd5b8251631e4fbdf760e01b815260006004820152602490fd5b600080fd5b601f909101601f19168101906001600160401b03821190821017620001a757604052565b634e487b7160e01b600052604160045260246000fd5b51906001600160a01b03821682036200017e5756fe6080604081815260048036101561001557600080fd5b600092833560e01c9081630542975c14610a98575080631b11d0ff1461056757806326df6e91146103b2578063715018a6146103555780637535d2461461031157806389a30271146102e25780638da5cb5b146102ba578063a87eba3c146101a6578063ad5c464814610177578063c31c9c071461012f5763f2fde38b1461009c57600080fd5b3461012b57602036600319011261012b576100b5610adb565b906100be610c7e565b6001600160a01b03918216928315610115575050600054826bffffffffffffffffffffffff60a01b821617600055167f8be0079c531659141344cd1fd0a4f28419497f9722a3daafe3b4186f6b6457e0600080a380f35b51631e4fbdf760e01b8152908101849052602490fd5b8280fd5b505034610173578160031936011261017357517f00000000000000000000000000000000000000000000000000000000000000006001600160a01b03168152602090f35b5080fd5b505034610173578160031936011261017357602090517382af49447d8a07e3bd95bd0d56f35241523fbab18152f35b5091903461017357602036600319011261017357805192602084019367ffffffffffffffff90808610828711176102a7578495845284815260018060a01b037f00000000000000000000000000000000000000000000000000000000000000001690813b156102a357859161025e9186519788809481936310ac2ddf60e21b8352308a84015273af88d065e77c8cc2239327c5edb3a432268e583160248401528935604484015260a0606484015260a4830190610b7f565b82608483015203925af1801561029957610276578480f35b8311610286575052388080808480f35b634e487b7160e01b845260419052602483fd5b83513d87823e3d90fd5b8580fd5b634e487b7160e01b855260418352602485fd5b505034610173578160031936011261017357905490516001600160a01b039091168152602090f35b5050346101735781600319360112610173576020905173af88d065e77c8cc2239327c5edb3a432268e58318152f35b505034610173578160031936011261017357517f00000000000000000000000000000000000000000000000000000000000000006001600160a01b03168152602090f35b83346103af57806003193601126103af5761036e610c7e565b80546001600160a01b03198116825581906001600160a01b03167f8be0079c531659141344cd1fd0a4f28419497f9722a3daafe3b4186f6b6457e08280a380f35b80fd5b503461012b578260031936011261012b576103cb610c7e565b81516370a0823160e01b815230828201529160209173af88d065e77c8cc2239327c5edb3a432268e58318385602481845afa9485156104ec578695610538575b5084156104f657825163a9059cbb60e01b815233838201908152602081018790529091859183919082908a90829060400103925af19081156104ec5786916104bf575b501561048757505161048492916e2bb4ba34323930bbb7102aa9a2219d60891b9061047883610b29565b600f8352820152610c26565b80f35b82606492519162461bcd60e51b835282015260146024820152731554d110c81d1c985b9cd9995c8819985a5b195960621b6044820152fd5b6104df9150843d86116104e5575b6104d78183610b45565b810190610b67565b3861044e565b503d6104cd565b83513d88823e3d90fd5b5082606492519162461bcd60e51b8352820152601b60248201527f4e6f20555344432062616c616e636520746f20776974686472617700000000006044820152fd5b9094508381813d8311610560575b6105508183610b45565b810103126102a35751933861040b565b503d610546565b5091346103af5760a03660031901126103af57610582610adb565b50602435906001600160a01b036064358181169160443591839003610a945760843567ffffffffffffffff8082116102a357366023830112156102a357818901359081116102a35736910160240111610a9457807f00000000000000000000000000000000000000000000000000000000000000001692833303610a51573003610a0e577f0000000000000000000000000000000000000000000000000000000000000000169585519163095ea7b360e01b908184526020988461065e898387840160209093929193604081019460018060a01b031681520152565b03948a8173af88d065e77c8cc2239327c5edb3a432268e583197818b8a5af18015610a0457908a92916109e7575b50846106fc8a8d855161069e81610af6565b8a81528c7382af49447d8a07e3bd95bd0d56f35241523fbab19788848401526101f494858285015230606085015242608085015260a08401528160c08401528160e084015251808096819463414bf38960e01b998a84528301610bbf565b0391885af19182156109dd57908e858f94938f8f918d918d918498610990575b508861077e6107a4926107558b809d9c9b9c5161073881610b29565b600c81526b022aa241020b6b7bab73a1d160a51b8c820152610c26565b825161076081610b29565b600d81526c02aa9a2219020b6b7bab73a1d1609d1b8a820152610c26565b51968795869485948552840160209093929193604081019460018060a01b031681520152565b03918a5af1801561098657918f9593918f90610808989694610969575b508051956107ce87610af6565b86528b8787015285015230606085015242608085015260a08401528a60c08401528a60e08401528a8d5180968195829483528b8301610bbf565b03925af1801561095f57879061092c575b6108499150895161082981610b29565b600f81526e02aa9a221902932b1b2b4bb32b21d1608d1b8c820152610c26565b8087018097116109195788949392916108ae87926108898a8c5161086c81610b29565b600c81526b02a37ba30b6102232b13a1d160a51b8b820152610c26565b8a5161089481610b29565b60098152680283932b6b4bab69d160bd1b89820152610c26565b6108d88951988996879586948552840160209093929193604081019460018060a01b031681520152565b03925af190811561090e57506108f1575b505160018152f35b61090790833d85116104e5576104d78183610b45565b50386108e9565b8351903d90823e3d90fd5b634e487b7160e01b865260118352602486fd5b508981813d8311610958575b6109428183610b45565b81010312610954576108499051610819565b8680fd5b503d610938565b89513d89823e3d90fd5b61097f90883d8a116104e5576104d78183610b45565b50386107c1565b8e513d8e823e3d90fd5b9750505050505090925081813d83116109d6575b6109ae8183610b45565b810103126109d257908b8e858f8b8f916107a48d9161077e9951989791509861071c565b8a80fd5b503d6109a4565b8d513d8d823e3d90fd5b6109fd908c8d3d106104e5576104d78183610b45565b503861068c565b8a513d8a823e3d90fd5b855162461bcd60e51b8152602081890152601f60248201527f496e69746961746f72206d757374206265207468697320636f6e7472616374006044820152606490fd5b865162461bcd60e51b81526020818a0152601860248201527f43616c6c6572206d757374206265204161766520506f6f6c00000000000000006044820152606490fd5b8380fd5b8490346101735781600319360112610173577f00000000000000000000000000000000000000000000000000000000000000006001600160a01b03168152602090f35b600435906001600160a01b0382168203610af157565b600080fd5b610100810190811067ffffffffffffffff821117610b1357604052565b634e487b7160e01b600052604160045260246000fd5b6040810190811067ffffffffffffffff821117610b1357604052565b90601f8019910116810190811067ffffffffffffffff821117610b1357604052565b90816020910312610af157518015158103610af15790565b919082519283825260005b848110610bab575050826000602080949584010152601f8019910116010190565b602081830181015184830182015201610b8a565b91909160e06101008201938160018060a01b039182815116855282602082015116602086015262ffffff60408201511660408601528260608201511660608601526080810151608086015260a081015160a086015260c081015160c0860152015116910152565b600091908291610c6b6040518092610c576020830195632d839cb360e21b8752604060248501526064840190610b7f565b90604483015203601f198101835282610b45565b51906a636f6e736f6c652e6c6f675afa50565b6000546001600160a01b03163303610c9257565b60405163118cdaa760e01b8152336004820152602490fdfea2646970667358221220cd5d94c55920d0712c5595ea6364bbd0e003feb6d723caeed0f0bc72c20f9b3b64736f6c63430008160033",
  "linkReferences": {},
  "deployedLinkReferences": {}
}