{
  "_format": "hh-sol-artifact-1",
  "contractName": "PortfolioStorage",
  "sourceName": "contracts/PortfolioStorage.sol",
  "abi": [
    {
      "inputs": [],
      "name": "InvalidInitialization",
      "type": "error"
    },
    {
      "inputs": [],
      "name": "NotInitializing",
      "type": "error"
    },
    {
      "inputs": [
        {
          "internalType": "address",
          "name": "owner",
          "type": "address"
        }
      ],
      "name": "OwnableInvalidOwner",
      "type": "error"
    },
    {
      "inputs": [
        {
          "internalType": "address",
          "name": "account",
          "type": "address"
        }
      ],
      "name": "OwnableUnauthorizedAccount",
      "type": "error"
    },
    {
      "anonymous": false,
      "inputs": [
        {
          "indexed": true,
          "internalType": "address",
          "name": "account",
          "type": "address"
        }
      ],
      "name": "AddressAuthorized",
      "type": "event"
    },
    {
      "anonymous": false,
      "inputs": [
        {
          "indexed": true,
          "internalType": "address",
          "name": "account",
          "type": "address"
        }
      ],
      "name": "AddressDeauthorized",
      "type": "event"
    },
    {
      "anonymous": false,
      "inputs": [
        {
          "indexed": false,
          "internalType": "uint64",
          "name": "version",
          "type": "uint64"
        }
      ],
      "name": "Initialized",
      "type": "event"
    },
    {
      "anonymous": false,
      "inputs": [
        {
          "indexed": true,
          "internalType": "address",
          "name": "user",
          "type": "address"
        },
        {
          "indexed": true,
          "internalType": "uint256",
          "name": "round",
          "type": "uint256"
        },
        {
          "indexed": false,
          "internalType": "uint256",
          "name": "nonce",
          "type": "uint256"
        }
      ],
      "name": "LatestNonceUpdated",
      "type": "event"
    },
    {
      "anonymous": false,
      "inputs": [
        {
          "indexed": true,
          "internalType": "address",
          "name": "owner",
          "type": "address"
        },
        {
          "indexed": true,
          "internalType": "uint256",
          "name": "round",
          "type": "uint256"
        },
        {
          "indexed": false,
          "internalType": "uint256",
          "name": "initialValue",
          "type": "uint256"
        }
      ],
      "name": "OwnerPortfolioCreated",
      "type": "event"
    },
    {
      "anonymous": false,
      "inputs": [
        {
          "indexed": true,
          "internalType": "address",
          "name": "owner",
          "type": "address"
        },
        {
          "indexed": true,
          "internalType": "uint256",
          "name": "round",
          "type": "uint256"
        },
        {
          "indexed": false,
          "internalType": "uint256",
          "name": "winAmount",
          "type": "uint256"
        }
      ],
      "name": "OwnerWin",
      "type": "event"
    },
    {
      "anonymous": false,
      "inputs": [
        {
          "indexed": true,
          "internalType": "address",
          "name": "previousOwner",
          "type": "address"
        },
        {
          "indexed": true,
          "internalType": "address",
          "name": "newOwner",
          "type": "address"
        }
      ],
      "name": "OwnershipTransferred",
      "type": "event"
    },
    {
      "anonymous": false,
      "inputs": [
        {
          "indexed": true,
          "internalType": "address",
          "name": "user",
          "type": "address"
        },
        {
          "indexed": true,
          "internalType": "uint256",
          "name": "round",
          "type": "uint256"
        },
        {
          "indexed": true,
          "internalType": "uint256",
          "name": "nonce",
          "type": "uint256"
        },
        {
          "indexed": false,
          "internalType": "bytes32",
          "name": "portfolioType",
          "type": "bytes32"
        },
        {
          "indexed": false,
          "internalType": "uint256",
          "name": "initialValue",
          "type": "uint256"
        },
        {
          "indexed": false,
          "internalType": "uint256",
          "name": "finalValue",
          "type": "uint256"
        }
      ],
      "name": "PortfolioStored",
      "type": "event"
    },
    {
      "anonymous": false,
      "inputs": [
        {
          "indexed": true,
          "internalType": "bytes32",
          "name": "portfolioType",
          "type": "bytes32"
        }
      ],
      "name": "PortfolioTypeAdded",
      "type": "event"
    },
    {
      "anonymous": false,
      "inputs": [
        {
          "indexed": true,
          "internalType": "bytes32",
          "name": "portfolioType",
          "type": "bytes32"
        }
      ],
      "name": "PortfolioTypeRemoved",
      "type": "event"
    },
    {
      "inputs": [],
      "name": "__AuthorizationManager_init",
      "outputs": [],
      "stateMutability": "nonpayable",
      "type": "function"
    },
    {
      "inputs": [],
      "name": "__PortfolioTypeManager_init",
      "outputs": [],
      "stateMutability": "nonpayable",
      "type": "function"
    },
    {
      "inputs": [
        {
          "internalType": "string",
          "name": "_type",
          "type": "string"
        }
      ],
      "name": "addPortfolioType",
      "outputs": [],
      "stateMutability": "nonpayable",
      "type": "function"
    },
    {
      "inputs": [
        {
          "internalType": "address",
          "name": "account",
          "type": "address"
        }
      ],
      "name": "authorizeAddress",
      "outputs": [],
      "stateMutability": "nonpayable",
      "type": "function"
    },
    {
      "inputs": [
        {
          "internalType": "uint256",
          "name": "round",
          "type": "uint256"
        },
        {
          "components": [
            {
              "internalType": "bytes32",
              "name": "portfolioType",
              "type": "bytes32"
            },
            {
              "internalType": "address[]",
              "name": "assets",
              "type": "address[]"
            },
            {
              "internalType": "uint256[]",
              "name": "amounts",
              "type": "uint256[]"
            },
            {
              "internalType": "uint256",
              "name": "initialValue",
              "type": "uint256"
            },
            {
              "internalType": "uint256",
              "name": "finalValue",
              "type": "uint256"
            }
          ],
          "internalType": "struct PortfolioStruct.Portfolio",
          "name": "portfolio",
          "type": "tuple"
        }
      ],
      "name": "createOwnerPortfolio",
      "outputs": [],
      "stateMutability": "nonpayable",
      "type": "function"
    },
    {
      "inputs": [
        {
          "internalType": "address",
          "name": "account",
          "type": "address"
        }
      ],
      "name": "deauthorizeAddress",
      "outputs": [],
      "stateMutability": "nonpayable",
      "type": "function"
    },
    {
      "inputs": [],
      "name": "getAllPortfolioTypes",
      "outputs": [
        {
          "internalType": "string[]",
          "name": "",
          "type": "string[]"
        }
      ],
      "stateMutability": "view",
      "type": "function"
    },
    {
      "inputs": [
        {
          "internalType": "address",
          "name": "user",
          "type": "address"
        },
        {
          "internalType": "uint256",
          "name": "round",
          "type": "uint256"
        }
      ],
      "name": "getLatestNonce",
      "outputs": [
        {
          "internalType": "uint256",
          "name": "",
          "type": "uint256"
        }
      ],
      "stateMutability": "view",
      "type": "function"
    },
    {
      "inputs": [
        {
          "internalType": "uint256",
          "name": "round",
          "type": "uint256"
        }
      ],
      "name": "getOwnerPortfolio",
      "outputs": [
        {
          "components": [
            {
              "internalType": "bytes32",
              "name": "portfolioType",
              "type": "bytes32"
            },
            {
              "internalType": "address[]",
              "name": "assets",
              "type": "address[]"
            },
            {
              "internalType": "uint256[]",
              "name": "amounts",
              "type": "uint256[]"
            },
            {
              "internalType": "uint256",
              "name": "initialValue",
              "type": "uint256"
            },
            {
              "internalType": "uint256",
              "name": "finalValue",
              "type": "uint256"
            }
          ],
          "internalType": "struct PortfolioStruct.Portfolio",
          "name": "",
          "type": "tuple"
        }
      ],
      "stateMutability": "view",
      "type": "function"
    },
    {
      "inputs": [
        {
          "internalType": "uint256",
          "name": "round",
          "type": "uint256"
        }
      ],
      "name": "getPlayersInRound",
      "outputs": [
        {
          "internalType": "address[]",
          "name": "",
          "type": "address[]"
        }
      ],
      "stateMutability": "view",
      "type": "function"
    },
    {
      "inputs": [
        {
          "internalType": "address",
          "name": "user",
          "type": "address"
        },
        {
          "internalType": "uint256",
          "name": "round",
          "type": "uint256"
        },
        {
          "internalType": "uint256",
          "name": "nonce",
          "type": "uint256"
        }
      ],
      "name": "getPortfolio",
      "outputs": [
        {
          "components": [
            {
              "internalType": "bytes32",
              "name": "portfolioType",
              "type": "bytes32"
            },
            {
              "internalType": "address[]",
              "name": "assets",
              "type": "address[]"
            },
            {
              "internalType": "uint256[]",
              "name": "amounts",
              "type": "uint256[]"
            },
            {
              "internalType": "uint256",
              "name": "initialValue",
              "type": "uint256"
            },
            {
              "internalType": "uint256",
              "name": "finalValue",
              "type": "uint256"
            }
          ],
          "internalType": "struct PortfolioStruct.Portfolio",
          "name": "portfolio",
          "type": "tuple"
        }
      ],
      "stateMutability": "view",
      "type": "function"
    },
    {
      "inputs": [
        {
          "internalType": "address",
          "name": "user",
          "type": "address"
        },
        {
          "internalType": "uint256",
          "name": "round",
          "type": "uint256"
        }
      ],
      "name": "getPortfolioByLatestNonce",
      "outputs": [
        {
          "components": [
            {
              "internalType": "bytes32",
              "name": "portfolioType",
              "type": "bytes32"
            },
            {
              "internalType": "address[]",
              "name": "assets",
              "type": "address[]"
            },
            {
              "internalType": "uint256[]",
              "name": "amounts",
              "type": "uint256[]"
            },
            {
              "internalType": "uint256",
              "name": "initialValue",
              "type": "uint256"
            },
            {
              "internalType": "uint256",
              "name": "finalValue",
              "type": "uint256"
            }
          ],
          "internalType": "struct PortfolioStruct.Portfolio",
          "name": "portfolio",
          "type": "tuple"
        }
      ],
      "stateMutability": "view",
      "type": "function"
    },
    {
      "inputs": [],
      "name": "initialize",
      "outputs": [],
      "stateMutability": "nonpayable",
      "type": "function"
    },
    {
      "inputs": [
        {
          "internalType": "address",
          "name": "account",
          "type": "address"
        }
      ],
      "name": "isAuthorized",
      "outputs": [
        {
          "internalType": "bool",
          "name": "",
          "type": "bool"
        }
      ],
      "stateMutability": "view",
      "type": "function"
    },
    {
      "inputs": [
        {
          "internalType": "bytes32",
          "name": "_typeHash",
          "type": "bytes32"
        }
      ],
      "name": "isValidPortfolioBytes",
      "outputs": [
        {
          "internalType": "bool",
          "name": "",
          "type": "bool"
        }
      ],
      "stateMutability": "view",
      "type": "function"
    },
    {
      "inputs": [
        {
          "internalType": "string",
          "name": "_type",
          "type": "string"
        }
      ],
      "name": "isValidPortfolioType",
      "outputs": [
        {
          "internalType": "bool",
          "name": "",
          "type": "bool"
        }
      ],
      "stateMutability": "view",
      "type": "function"
    },
    {
      "inputs": [],
      "name": "owner",
      "outputs": [
        {
          "internalType": "address",
          "name": "",
          "type": "address"
        }
      ],
      "stateMutability": "view",
      "type": "function"
    },
    {
      "inputs": [
        {
          "internalType": "string",
          "name": "_type",
          "type": "string"
        }
      ],
      "name": "removePortfolioType",
      "outputs": [],
      "stateMutability": "nonpayable",
      "type": "function"
    },
    {
      "inputs": [],
      "name": "renounceOwnership",
      "outputs": [],
      "stateMutability": "nonpayable",
      "type": "function"
    },
    {
      "inputs": [
        {
          "internalType": "uint256",
          "name": "round",
          "type": "uint256"
        },
        {
          "components": [
            {
              "internalType": "bytes32",
              "name": "portfolioType",
              "type": "bytes32"
            },
            {
              "internalType": "address[]",
              "name": "assets",
              "type": "address[]"
            },
            {
              "internalType": "uint256[]",
              "name": "amounts",
              "type": "uint256[]"
            },
            {
              "internalType": "uint256",
              "name": "initialValue",
              "type": "uint256"
            },
            {
              "internalType": "uint256",
              "name": "finalValue",
              "type": "uint256"
            }
          ],
          "internalType": "struct PortfolioStruct.Portfolio",
          "name": "portfolio",
          "type": "tuple"
        },
        {
          "internalType": "address",
          "name": "user",
          "type": "address"
        }
      ],
      "name": "storePortfolioCurrentNonce",
      "outputs": [],
      "stateMutability": "nonpayable",
      "type": "function"
    },
    {
      "inputs": [
        {
          "internalType": "address",
          "name": "newOwner",
          "type": "address"
        }
      ],
      "name": "transferOwnership",
      "outputs": [],
      "stateMutability": "nonpayable",
      "type": "function"
    }
  ],
  "bytecode": "0x608080604052346100165761245c908161001c8239f35b600080fdfe6080604052600436101561001257600080fd5b60003560e01c80631822339b1461016757806324c706031461016257806343fdf0ab1461015d5780634a5db3b5146101585780634aba115414610153578063715018a61461014e5780638129fc1c1461014957806387f85cce146101445780638da5cb5b1461013f578063968c3ad81461013a578063b2cb53c714610135578063b2ce076b14610130578063c3e9b53b1461012b578063d45d90e514610126578063dce4e13114610121578063eaedf3a11461011c578063f0ef775e14610117578063f2fde38b14610112578063f73857cc1461010d578063fe9fbb80146101085763ffd664911461010357600080fd5b611251565b61120f565b611142565b611115565b6110e9565b611015565b610f84565b610f35565b610df9565b610b36565b610a97565b6109df565b610964565b610928565b610831565b6107c3565b61069c565b6104e1565b610490565b6103bf565b610223565b90815180825260208080930193019160005b82811061018c575050505090565b83518552938101939281019260010161017e565b60208082528251828201528281015160a06040840152805160c0840181905260e08401929182019160005b828110610206575050505060806101f460a0926040860151601f1986830301606087015261016c565b93606081015182850152015191015290565b83516001600160a01b0316855293810193928101926001016101cb565b3461030e5760208060031936011261030e5761023d6112cc565b5060043560009081526067825260408082206000805160206123e7833981519152546001600160a01b03908116845260209190915281832083805284528183209382519361028a856105b5565b85548552835160018088018054808452908452848420929585870194905b8282106102f7576102f38a8a60048e8c8c6102c5828e038361060b565b8501526102d4600282016112f9565b83850152600381015460608501520154608083015251918291826101a0565b0390f35b8454811686529486019493830193908301906102a8565b600080fd5b60005b8381106103265750506000910152565b8181015183820152602001610316565b9060209161034f81518092818552858086019101610313565b601f01601f1916010190565b6020808201906020835283518092526040830192602060408460051b8301019501936000915b8483106103915750505050505090565b90919293949584806103af600193603f198682030187528a51610336565b9801930193019194939290610381565b3461030e57600036600319011261030e576033546103dc8161134c565b9060406103ec604051938461060b565b818352601f1990816103fd8461134c565b0160005b81811061046e57505060005b83811061042257604051806102f3878261035b565b80610446610452610434600194611fde565b85519283916020830160209181520190565b0386810183528261060b565b61045c8288611379565b526104678187611379565b500161040d565b806060602080938901015201610401565b6001600160a01b0381160361030e57565b3461030e57604036600319011261030e5760206104d86004356104b28161047f565b6024356000526068835260406000209060018060a01b0316600052602052604060002090565b54604051908152f35b3461030e57602036600319011261030e576004356104fe8161047f565b61050661187d565b6001600160a01b0316801561055a576000908082528160205261053360408320600160ff19825416179055565b7faa4a1856deca699ff17682b11b9090fe141669ccd7c1951ab8605ad8c9ab17758280a280f35b60405162461bcd60e51b815260206004820152601d60248201527f43616e6e6f7420617574686f72697a65207a65726f20616464726573730000006044820152606490fd5b634e487b7160e01b600052604160045260246000fd5b60a081019081106001600160401b038211176105d057604052565b61059f565b604081019081106001600160401b038211176105d057604052565b606081019081106001600160401b038211176105d057604052565b90601f801991011681019081106001600160401b038211176105d057604052565b602060031982011261030e576001600160401b0360043581811161030e578260238201121561030e5780600401359182116105d05760405192610679601f8401601f19166020018561060b565b8284526024838301011161030e5781600092602460209301838601378301015290565b3461030e576106aa3661062c565b6000903382526020908282526106c660ff604085205416611392565b610704816040516106d6816105d5565b601b81527f52656d6f76696e6720706f7274666f6c696f20747970653a2025730000000000858201526118b6565b60405161072d8382816107208183019687815193849201610313565b810103808452018261060b565b51902090610748826000526034602052604060002054151590565b1561077f57506107578161208a565b507f03b8bbb6640b9efbfaa1d02e27cc5e1cf7883ddfda17ce0f83f67a168617c6028280a280f35b6064906040519062461bcd60e51b82526004820152601d60248201527f506f7274666f6c696f207479706520646f6573206e6f742065786973740000006044820152fd5b3461030e5760008060031936011261082e576107dd61187d565b6000805160206123e783398151915280546001600160a01b0319811690915581906001600160a01b03167f8be0079c531659141344cd1fd0a4f28419497f9722a3daafe3b4186f6b6457e08280a380f35b80fd5b3461030e57600036600319011261030e57600080516020612407833981519152546001600160401b0360ff8260401c1615911680159081610920575b6001149081610916575b15908161090d575b506108fb578061088d6113cf565b6108ee575b61089a611414565b6108a057005b6108bf600080516020612407833981519152805460ff60401b19169055565b604051600181527fc7f505b2f371ae2175ee4913f4499e1f2633a7b5936321eed1cdaeb6115181d290602090a1005b6108f66113f2565b610892565b60405163f92ee8a960e01b8152600490fd5b9050153861087f565b303b159150610877565b82915061086d565b3461030e57606036600319011261030e576102f361095860043561094b8161047f565b604435906024359061152d565b604051918291826101a0565b3461030e57600036600319011261030e576000805160206123e7833981519152546040516001600160a01b039091168152602090f35b602090602060408183019282815285518094520193019160005b8281106109c2575050505090565b83516001600160a01b0316855293810193928101926001016109b4565b3461030e5760208060031936011261030e5760043590600082600052606990606960205260409160406000205493610a168561134c565b95610a24604051978861060b565b858752601f19610a338761134c565b0136602089013760005b868110610a5257604051806102f38a8261099a565b600190828652848452610a91610a6a82898920611fc6565b848060a01b0391549060031b1c16610a82838c611379565b6001600160a01b039091169052565b01610a3d565b3461030e57600036600319011261030e57600080516020612407833981519152546001600160401b0360ff8260401c1615911680159081610b20575b6001149081610b16575b159081610b0d575b506108fb5780610af36113cf565b610b00575b61089a6116f5565b610b086113f2565b610af8565b90501538610ae5565b303b159150610add565b829150610ad3565b908160a091031261030e5790565b3461030e57606036600319011261030e576004356024356001600160401b03811161030e57610b69903690600401610b28565b90604435610b768161047f565b60009233845283602052604090610b9260ff8387205416611392565b8385526068602090815282862033600090815291526040902054918135610bc6816000526034602052604060002054151590565b15610dbc57908386809493878383610bdc611b1c565b92610be6936121b2565b610bef8161220a565b606085013594610bfe86612231565b608081013590610c0d82612231565b848a610c23866000526067602052604060002090565b6001600160a01b039091166000908152602091909152604090206000918252602052604090206001015415610c5790611b72565b60208101610c658183611bcf565b9050610c7383890184611bcf565b610c7f92149050611c04565b610c898183611bcf565b610c9591501515611c50565b610ca0881515611cae565b610caa8315611d0a565b610cb49082611bcf565b610cbd91612258565b848a610cd3866000526067602052604060002090565b6001600160a01b0390911660009081526020919091526040902060009182526020526040902090610d0391611e01565b610d0c84611ea8565b89610d21856000526068602052604060002090565b6001600160a01b03918216600090815260209182526040908190209390935587519485528401979097528201529387169384907f43cefd570f7dbd737621f55ff35c76c99eeb098f116bc71932a9b6f2016b759c90606090a4518381527f87ca4bc49a1331e8f8c379f436a66e9d9af4788997883682548a812a30c44c3590602090a315610dad578280f35b610db691611eb6565b38808280f35b815162461bcd60e51b8152602060048201526016602482015275496e76616c696420706f7274666f6c696f207479706560501b6044820152606490fd5b3461030e5760408060031936011261030e576004356024356001600160401b03811161030e57610e2d903690600401610b28565b60009233845283602052610e4660ff8286205416611392565b828452606760209081528185206000805160206123e783398151915280546001600160a01b039081166000818152939094526040909220919392909187805260205260018388200154610ef1576060610ed77f021ddae67f6f6ca62cea3fc753526b347a5e432fbc3f353f314f7550d55a2fcb959493610eca888a610eeb9661190d565b546001600160a01b031690565b925193849316950135829190602083019252565b0390a380f35b825162461bcd60e51b815260206004820152601d60248201527f4f776e657220616c726561647920686173206120706f7274666f6c696f0000006044820152606490fd5b3461030e576020610f7a610f483661062c565b604051610f648482816107208183019687815193849201610313565b5190206000526034602052604060002054151590565b6040519015158152f35b3461030e57600036600319011261030e57600080516020612407833981519152546001600160401b0360ff8260401c161591168015908161100d575b6001149081611003575b159081610ffa575b506108fb5780610fe06113cf565b610fed575b61089a61177e565b610ff56113f2565b610fe5565b90501538610fd2565b303b159150610fca565b829150610fc0565b3461030e5760206110253661062c565b336000526000825261103e60ff60406000205416611392565b61107c8160405161104e816105d5565b601981527f416464696e6720706f7274666f6c696f20747970653a20257300000000000000858201526118b6565b0151611095816000526034602052604060002054151590565b6110a4576110a290611f5e565b005b60405162461bcd60e51b815260206004820152601d60248201527f506f7274666f6c696f207479706520616c7265616479206578697374730000006044820152606490fd5b3461030e57602036600319011261030e576020610f7a6004356000526034602052604060002054151590565b3461030e57602036600319011261030e576110a26004356111358161047f565b61113d61187d565b6117f3565b3461030e57602036600319011261030e5760043561115f8161047f565b61116761187d565b6001600160a01b03811660008181526020819052604081205490929060ff16156111d1576001600160a01b03166000908152602081905260409020805460ff191690557fff697c8ffb6d1c8456e82cc41dade65a5222e9914aa8c020f55b73b617ad50c08280a280f35b60405162461bcd60e51b81526020600482015260166024820152751059191c995cdcc81b9bdd08185d5d1a1bdc9a5e995960521b6044820152606490fd5b3461030e57602036600319011261030e5760043561122c8161047f565b60018060a01b03166000526000602052602060ff604060002054166040519015158152f35b3461030e57604036600319011261030e5760043561126e8161047f565b6024359061127a6112cc565b5060008281526068602090815260408083206001600160a01b038516845290915290205460001981019081116112c7576102f3926112b79261152d565b61095860208201515115156114e1565b611867565b604051906112d9826105b5565b600060808382815260606020820152606060408201528260608201520152565b90604051918281549182825260209260208301916000526020600020936000905b828210611332575050506113309250038361060b565b565b85548452600195860195889550938101939091019061131a565b6001600160401b0381116105d05760051b60200190565b634e487b7160e01b600052603260045260246000fd5b805182101561138d5760209160051b010190565b611363565b1561139957565b60405162461bcd60e51b815260206004820152600e60248201526d139bdd08185d5d1a1bdc9a5e995960921b6044820152606490fd5b600080516020612407833981519152805467ffffffffffffffff19166001179055565b600080516020612407833981519152805460ff60401b1916600160401b179055565b60008051602061240783398151915280546001600160401b0360ff8260401c16159116801590816114d9575b60011490816114cf575b1590816114c6575b506108fb57806114606113cf565b6114b9575b61146d61177e565b61147b575b50611330611633565b805460ff60401b19169055604051600181527fc7f505b2f371ae2175ee4913f4499e1f2633a7b5936321eed1cdaeb6115181d290602090a138611472565b6114c16113f2565b611465565b90501538611452565b303b15915061144a565b829150611440565b156114e857565b60405162461bcd60e51b815260206004820152601860248201527f506f7274666f6c696f20646f6573206e6f7420657869737400000000000000006044820152606490fd5b9291906115386112cc565b50600093818552602092606784526115a360409261156a81858a209060018060a01b0316600052602052604060002090565b83895286526001946115836001868b20015415156114e1565b8852606786528388209060018060a01b0316600052602052604060002090565b9086528352808520918151936115b8856105b5565b83548552600184019683519283838a549182815201998352838320925b81811061161757505050506115f0826004969798038361060b565b8501526115ff600283016112f9565b90840152600381015460608401520154608082015290565b83546001600160a01b03168b52998401999282019282016115d5565b60008051602061240783398151915280546001600160401b0360ff8260401c16159116801590816116ed575b60011490816116e3575b1590816116da575b506108fb578061167f6113cf565b6116cd575b61168c6116f5565b6116935750565b805460ff60401b19169055604051600181527fc7f505b2f371ae2175ee4913f4499e1f2633a7b5936321eed1cdaeb6115181d290602090a1565b6116d56113f2565b611684565b90501538611671565b303b159150611669565b82915061165f565b6116fd612129565b60008051602061240783398151915280546001600160401b0360ff8260401c1615911680159081611776575b600114908161176c575b159081611763575b506108fb57806117496113cf565b611756575b61168c61177e565b61175e6113f2565b61174e565b9050153861173b565b303b159150611733565b829150611729565b611786612129565b61178e612129565b611796612129565b61179f336117f3565b6117a761187d565b331561055a573360005260006020526117cb6040600020600160ff19825416179055565b337faa4a1856deca699ff17682b11b9090fe141669ccd7c1951ab8605ad8c9ab1775600080a2565b6001600160a01b0390811690811561184e576000805160206123e783398151915280546001600160a01b031981168417909155167f8be0079c531659141344cd1fd0a4f28419497f9722a3daafe3b4186f6b6457e0600080a3565b604051631e4fbdf760e01b815260006004820152602490fd5b634e487b7160e01b600052601160045260246000fd5b6000805160206123e7833981519152546001600160a01b0316330361189e57565b60405163118cdaa760e01b8152336004820152602490fd5b6119086118e8916118fa61133094604051948593634b5c427760e01b6020860152604060248601526064850190610336565b83810360231901604485015290610336565b03601f19810183528261060b565b612013565b91909181359061192a826000526034602052604060002054151590565b15611ade57611aac927f43cefd570f7dbd737621f55ff35c76c99eeb098f116bc71932a9b6f2016b759c8260009461196b888096611966611b1c565b612158565b6119748161220a565b60608401359161198383612231565b611a6960808601359561199587612231565b6119e360016119db6119cc866119b58d6000526067602052604060002090565b9060018060a01b0316600052602052604060002090565b60008052602052604060002090565b015415611b72565b611a49611a4360208301611a126119fa8286611bcf565b9050611a096040870187611bcf565b91905014611c04565b611a28611a1f8286611bcf565b90501515611c50565b611a33881515611cae565b611a3d8a15611d0a565b83611bcf565b90612258565b611a646119cc846119b58b6000526067602052604060002090565b611e01565b6001611a83826119b5896000526068602052604060002090565b5560018060a01b0316968794604051938493846040919493926060820195825260208201520152565b0390a4604051600081527f87ca4bc49a1331e8f8c379f436a66e9d9af4788997883682548a812a30c44c3590602090a3565b60405162461bcd60e51b8152602060048201526016602482015275496e76616c696420706f7274666f6c696f207479706560501b6044820152606490fd5b60405190611b29826105f0565b60348252731c9bdd5b990e8809590b081b9bdb98d94e88095960621b6040837f53746f72696e6720706f7274666f6c696f20666f7220757365723a2025732c2060208201520152565b15611b7957565b60405162461bcd60e51b815260206004820152602860248201527f506f7274666f6c696f20776974682074686973206e6f6e636520616c72656164604482015267792065786973747360c01b6064820152608490fd5b903590601e198136030182121561030e57018035906001600160401b03821161030e57602001918160051b3603831361030e57565b15611c0b57565b60405162461bcd60e51b815260206004820152601d60248201527f4d69736d6174636865642061737365747320616e6420616d6f756e74730000006044820152606490fd5b15611c5757565b60405162461bcd60e51b815260206004820152602960248201527f506f7274666f6c696f206d75737420636f6e7461696e206174206c65617374206044820152681bdb9948185cdcd95d60ba1b6064820152608490fd5b15611cb557565b60405162461bcd60e51b815260206004820152602760248201527f496e697469616c2076616c7565206d7573742062652067726561746572207468604482015266616e207a65726f60c81b6064820152608490fd5b15611d1157565b60405162461bcd60e51b815260206004820152601860248201527f46696e616c2076616c7565206d757374206265207a65726f00000000000000006044820152606490fd5b91611d709183549060031b91821b91600019901b19161790565b9055565b9091828110611d8257505050565b600091600052602060002092830192015b828110611d9f57505050565b818155600101611d93565b906001600160401b0383116105d057600160401b83116105d057611dd383835481855584611d74565b906000526020806000209060005b848110611def575050505050565b83358382015592810192600101611de1565b813581559060016020818401611e1982850185611bcf565b92906001600160401b0384116105d057600160401b84116105d057611e4384845481865585611d74565b9160005260206000209060005b848110611e8d57505050505050608081611e7c611e7260406004950183611bcf565b9060028701611daa565b606081013560038501550135910155565b859082853595611e9c8761047f565b01948185015501611e50565b90600182018092116112c757565b90816000526069602052604060002090611eea60018060a01b03809216809360019160005201602052604060002054151590565b611f22576000805160206123e783398151915254168114611f1e57611f1b916000526069602052604060002061237f565b50565b5050565b60405162461bcd60e51b8152602060048201526014602482015273141b185e595c88185b1c9958591e48185919195960621b6044820152606490fd5b611f6781612308565b507f3ff60197f406bce9c6626b427f30179e228814244e5572e1811238bcebbc193b600080a2565b60335481101561138d5760336000527f82a75bdeeae8604d839476ae9efd8b0e15aa447e21bfd7f41283bb54e22c9a820190600090565b805482101561138d5760005260206000200190600090565b60335481101561138d5760336000527f82a75bdeeae8604d839476ae9efd8b0e15aa447e21bfd7f41283bb54e22c9a82015490565b600080916020815191016a636f6e736f6c652e6c6f675afa50565b6033548015612074576000198101908082101561138d577f82a75bdeeae8604d839476ae9efd8b0e15aa447e21bfd7f41283bb54e22c9a81600091603383520155603355565b634e487b7160e01b600052603160045260246000fd5b60008181526034602052604090205480156121225760001991818301918083116112c7576033549384019384116112c75783836000956120e595036120eb575b5050506120d561202e565b6000526034602052604060002090565b55600190565b6120d56121139161210b61210161211995611f8f565b90549060031b1c90565b928391611f8f565b90611d56565b553880806120ca565b5050600090565b60ff6000805160206124078339815191525460401c161561214657565b604051631afcd79f60e31b8152600490fd5b611908906121889261133094604051948593637c7a8d8f60e11b60208601526080602486015260a4850190610336565b6001600160a01b03909216604484015260648301526000608483015203601f19810183528261060b565b61190891611330946121e294604051958694637c7a8d8f60e11b60208701526080602487015260a4860190610336565b6001600160a01b0390931660448501526064840152608483015203601f19810183528261060b565b61133090604051906327b7cf8560e01b6020830152602482015260248152611908816105f0565b611330906040519063f82c50f160e01b6020830152602482015260248152611908816105f0565b60009190825b82841061226b5750505050565b8360051b8201359061227c8261047f565b604091825190602091828101916bffffffffffffffffffffffff199060601b168252601481526122ab816105d5565b519020928383166122c5575050906001911793019261225e565b60649250519062461bcd60e51b82526004820152601c60248201527f4475706c696361746520617373657473206e6f7420616c6c6f776564000000006044820152fd5b8060005260346020526040600020541560001461237957603354600160401b8110156105d057600181018060335581101561138d5781907f82a75bdeeae8604d839476ae9efd8b0e15aa447e21bfd7f41283bb54e22c9a820155603354906000526034602052604060002055600190565b50600090565b600082815260018201602052604090205461212257805490600160401b8210156105d057826123cf6123b8846001809601855584611fc6565b819391549060031b91821b91600019901b19161790565b90558054926000520160205260406000205560019056fe9016d09d72d40fdae2fd8ceac6b6234c7706214fd39c1cd1e609a0528c199300f0c57e16840df040f15088dc2f81fe391c3923bec73e23a9662efc9c229c6a00a2646970667358221220f9b6d77525597bc7405501a0c1ab87376514fb25e94e9b97180bbef04a4ea2bf64736f6c63430008160033",
  "linkReferences": {},
  "deployedLinkReferences": {}
}