{
  "_format": "hh-sol-artifact-1",
  "contractName": "GoldPrice",
  "sourceName": "contracts/GoldPrice.sol",
  "abi": [
    {
      "inputs": [
        {
          "internalType": "address",
          "name": "_priceFeed",
          "type": "address"
        }
      ],
      "stateMutability": "nonpayable",
      "type": "constructor"
    },
    {
      "inputs": [],
      "name": "getLatestGoldPrice",
      "outputs": [
        {
          "internalType": "int256",
          "name": "price",
          "type": "int256"
        }
      ],
      "stateMutability": "view",
      "type": "function"
    },
    {
      "inputs": [],
      "name": "priceFeed",
      "outputs": [
        {
          "internalType": "contract AggregatorV3Interface",
          "name": "",
          "type": "address"
        }
      ],
      "stateMutability": "view",
      "type": "function"
    }
  ],
  "bytecode": "0x608060405234801561001057600080fd5b5060405161047e38038061047e833981810160405281019061003291906100db565b806000806101000a81548173ffffffffffffffffffffffffffffffffffffffff021916908373ffffffffffffffffffffffffffffffffffffffff16021790555050610108565b600080fd5b600073ffffffffffffffffffffffffffffffffffffffff82169050919050565b60006100a88261007d565b9050919050565b6100b88161009d565b81146100c357600080fd5b50565b6000815190506100d5816100af565b92915050565b6000602082840312156100f1576100f0610078565b5b60006100ff848285016100c6565b91505092915050565b610367806101176000396000f3fe608060405234801561001057600080fd5b50600436106100365760003560e01c80632f7e177e1461003b578063741bef1a14610059575b600080fd5b610043610077565b6040516100509190610158565b60405180910390f35b61006161011b565b60405161006e91906101f2565b60405180910390f35b60008060009054906101000a900473ffffffffffffffffffffffffffffffffffffffff1673ffffffffffffffffffffffffffffffffffffffff1663feaf968c6040518163ffffffff1660e01b815260040160a060405180830381865afa1580156100e5573d6000803e3d6000fd5b505050506040513d601f19601f8201168201806040525081019061010991906102b6565b90919293509091509050508091505090565b60008054906101000a900473ffffffffffffffffffffffffffffffffffffffff1681565b6000819050919050565b6101528161013f565b82525050565b600060208201905061016d6000830184610149565b92915050565b600073ffffffffffffffffffffffffffffffffffffffff82169050919050565b6000819050919050565b60006101b86101b36101ae84610173565b610193565b610173565b9050919050565b60006101ca8261019d565b9050919050565b60006101dc826101bf565b9050919050565b6101ec816101d1565b82525050565b600060208201905061020760008301846101e3565b92915050565b600080fd5b600069ffffffffffffffffffff82169050919050565b61023181610212565b811461023c57600080fd5b50565b60008151905061024e81610228565b92915050565b61025d8161013f565b811461026857600080fd5b50565b60008151905061027a81610254565b92915050565b6000819050919050565b61029381610280565b811461029e57600080fd5b50565b6000815190506102b08161028a565b92915050565b600080600080600060a086880312156102d2576102d161020d565b5b60006102e08882890161023f565b95505060206102f18882890161026b565b9450506040610302888289016102a1565b9350506060610313888289016102a1565b92505060806103248882890161023f565b915050929550929590935056fea26469706673582212209d308e1fe68f07ec108cef90a3f9f5634553ce2b285441c092cacf8592915d5364736f6c63430008120033",
  "linkReferences": {},
  "deployedLinkReferences": {}
}