{
  "contracts/FlashloanManager.sol": {
    "FlashloanManager": {
      "abi": [
        {
          "inputs": [
            {
              "internalType": "address",
              "name": "provider",
              "type": "address"
            }
          ],
          "stateMutability": "nonpayable",
          "type": "constructor"
        },
        {
          "inputs": [],
          "name": "ADDRESSES_PROVIDER",
          "outputs": [
            {
              "internalType": "contract IPoolAddressesProvider",
              "name": "",
              "type": "address"
            }
          ],
          "stateMutability": "view",
          "type": "function"
        },
        {
          "inputs": [],
          "name": "POOL",
          "outputs": [
            {
              "internalType": "contract IPool",
              "name": "",
              "type": "address"
            }
          ],
          "stateMutability": "view",
          "type": "function"
        },
        {
          "inputs": [],
          "name": "USDC",
          "outputs": [
            {
              "internalType": "address",
              "name": "",
              "type": "address"
            }
          ],
          "stateMutability": "view",
          "type": "function"
        },
        {
          "inputs": [
            {
              "internalType": "address",
              "name": "asset",
              "type": "address"
            },
            {
              "internalType": "uint256",
              "name": "amount",
              "type": "uint256"
            },
            {
              "internalType": "uint256",
              "name": "premium",
              "type": "uint256"
            },
            {
              "internalType": "address",
              "name": "initiator",
              "type": "address"
            },
            {
              "internalType": "bytes",
              "name": "params",
              "type": "bytes"
            }
          ],
          "name": "executeOperation",
          "outputs": [
            {
              "internalType": "bool",
              "name": "",
              "type": "bool"
            }
          ],
          "stateMutability": "nonpayable",
          "type": "function"
        },
        {
          "inputs": [
            {
              "internalType": "uint256",
              "name": "amount",
              "type": "uint256"
            }
          ],
          "name": "requestFlashLoan",
          "outputs": [],
          "stateMutability": "nonpayable",
          "type": "function"
        },
        {
          "inputs": [
            {
              "internalType": "address",
              "name": "token",
              "type": "address"
            },
            {
              "internalType": "address",
              "name": "to",
              "type": "address"
            },
            {
              "internalType": "uint256",
              "name": "amount",
              "type": "uint256"
            }
          ],
          "name": "withdrawERC20",
          "outputs": [],
          "stateMutability": "nonpayable",
          "type": "function"
        }
      ],
      "evm": {
        "bytecode": {
          "linkReferences": {},
          "object": "60c080604052346100cf5760046020610712803803809161002082876100d4565b85396001600160a01b0393849161003a919081019061010d565b16806080526040519283809263026b1d5f60e01b82525afa9081156100c357600091610094575b501660a0526040516105e5908161012d823960805181610515015260a051818181609c015281816101fd01526103b00152f35b6100b6915060203d6020116100bc575b6100ae81836100d4565b81019061010d565b38610061565b503d6100a4565b6040513d6000823e3d90fd5b600080fd5b601f909101601f19168101906001600160401b038211908210176100f757604052565b634e487b7160e01b600052604160045260246000fd5b908160209103126100cf57516001600160a01b03811681036100cf579056fe608060408181526004908136101561001657600080fd5b600092833560e01c9081630542975c14610501575080631b11d0ff1461034357806344004cc11461022c5780637535d246146101e857806389a30271146101b55763a87eba3c1461006657600080fd5b346101b15760209160206003193601126101ad57815167ffffffffffffffff90602081018281118282101761019a5784528581527f00000000000000000000000000000000000000000000000000000000000000006001600160a01b031690813b156101965794869185519687926310ac2ddf60e21b8452308785015273af88d065e77c8cc2239327c5edb3a432268e583160248501528635604485015260a060648501528151918260a4860152855b83811061017c575050508360c484838383839684010152836084830152601f801991011681010301925af180156101725761014f578480f35b831161015f575052388080808480f35b634e487b7160e01b845260419052602483fd5b83513d87823e3d90fd5b8181018301518b820160c401528b96508a95508201610116565b8680fd5b634e487b7160e01b875260418452602487fd5b8380fd5b8280fd5b8382346101e457816003193601126101e4576020905173af88d065e77c8cc2239327c5edb3a432268e58318152f35b5080fd5b8382346101e457816003193601126101e457517f00000000000000000000000000000000000000000000000000000000000000006001600160a01b03168152602090f35b5090346101b15760603660031901126101b157610247610544565b602435906001600160a01b0390818316830361033f57169073af88d065e77c8cc2239327c5edb3a432268e583182146102fc57835163a9059cbb60e01b81526001600160a01b039091169281019283526044356020848101919091529093929091849182908790829060400103925af19081156102f357506102c7575080f35b6102e89060203d6020116102ec575b6102e0818361055f565b810190610597565b5080f35b503d6102d6565b513d84823e3d90fd5b835162461bcd60e51b8152602081850181905260248201527f43616e6e6f7420776974686472617720666c6173686c6f616e656420555344436044820152606490fd5b8580fd5b508290346101e45760a03660031901126101e45761035f610544565b602435906064356001600160a01b038181169182900361033f5760843567ffffffffffffffff8082116104fd57366023830112156104fd57818901359081116104fd573691016024011161033f57807f000000000000000000000000000000000000000000000000000000000000000016918233036104ba57300361047757604435840180941161046457845163095ea7b360e01b81526001600160a01b039290921687830190815260208082019590955291939284928390036040019183918891165af18015610458576020935061043b575b505160018152f35b61045190833d85116102ec576102e0818361055f565b5082610433565b505051903d90823e3d90fd5b634e487b7160e01b865260118752602486fd5b845162461bcd60e51b8152602081890152601f60248201527f496e69746961746f72206d757374206265207468697320636f6e7472616374006044820152606490fd5b855162461bcd60e51b81526020818a0152601860248201527f43616c6c6572206d757374206265204161766520506f6f6c00000000000000006044820152606490fd5b8780fd5b8490346101e457816003193601126101e4577f00000000000000000000000000000000000000000000000000000000000000006001600160a01b03168152602090f35b600435906001600160a01b038216820361055a57565b600080fd5b90601f8019910116810190811067ffffffffffffffff82111761058157604052565b634e487b7160e01b600052604160045260246000fd5b9081602091031261055a5751801515810361055a579056fea2646970667358221220ba85ff90bc3410e00188d267a11f9eebea3bd2886418abb1b7c208237a07510164736f6c63430008160033",
          "opcodes": "PUSH1 0xC0 DUP1 PUSH1 0x40 MSTORE CALLVALUE PUSH2 0xCF JUMPI PUSH1 0x4 PUSH1 0x20 PUSH2 0x712 DUP1 CODESIZE SUB DUP1 SWAP2 PUSH2 0x20 DUP3 DUP8 PUSH2 0xD4 JUMP JUMPDEST DUP6 CODECOPY PUSH1 0x1 PUSH1 0x1 PUSH1 0xA0 SHL SUB SWAP4 DUP5 SWAP2 PUSH2 0x3A SWAP2 SWAP1 DUP2 ADD SWAP1 PUSH2 0x10D JUMP JUMPDEST AND DUP1 PUSH1 0x80 MSTORE PUSH1 0x40 MLOAD SWAP3 DUP4 DUP1 SWAP3 PUSH4 0x26B1D5F PUSH1 0xE0 SHL DUP3 MSTORE GAS STATICCALL SWAP1 DUP2 ISZERO PUSH2 0xC3 JUMPI PUSH1 0x0 SWAP2 PUSH2 0x94 JUMPI JUMPDEST POP AND PUSH1 0xA0 MSTORE PUSH1 0x40 MLOAD PUSH2 0x5E5 SWAP1 DUP2 PUSH2 0x12D DUP3 CODECOPY PUSH1 0x80 MLOAD DUP2 PUSH2 0x515 ADD MSTORE PUSH1 0xA0 MLOAD DUP2 DUP2 DUP2 PUSH1 0x9C ADD MSTORE DUP2 DUP2 PUSH2 0x1FD ADD MSTORE PUSH2 0x3B0 ADD MSTORE RETURN JUMPDEST PUSH2 0xB6 SWAP2 POP PUSH1 0x20 RETURNDATASIZE PUSH1 0x20 GT PUSH2 0xBC JUMPI JUMPDEST PUSH2 0xAE DUP2 DUP4 PUSH2 0xD4 JUMP JUMPDEST DUP2 ADD SWAP1 PUSH2 0x10D JUMP JUMPDEST CODESIZE PUSH2 0x61 JUMP JUMPDEST POP RETURNDATASIZE PUSH2 0xA4 JUMP JUMPDEST PUSH1 0x40 MLOAD RETURNDATASIZE PUSH1 0x0 DUP3 RETURNDATACOPY RETURNDATASIZE SWAP1 REVERT JUMPDEST PUSH1 0x0 DUP1 REVERT JUMPDEST PUSH1 0x1F SWAP1 SWAP2 ADD PUSH1 0x1F NOT AND DUP2 ADD SWAP1 PUSH1 0x1 PUSH1 0x1 PUSH1 0x40 SHL SUB DUP3 GT SWAP1 DUP3 LT OR PUSH2 0xF7 JUMPI PUSH1 0x40 MSTORE JUMP JUMPDEST PUSH4 0x4E487B71 PUSH1 0xE0 SHL PUSH1 0x0 MSTORE PUSH1 0x41 PUSH1 0x4 MSTORE PUSH1 0x24 PUSH1 0x0 REVERT JUMPDEST SWAP1 DUP2 PUSH1 0x20 SWAP2 SUB SLT PUSH2 0xCF JUMPI MLOAD PUSH1 0x1 PUSH1 0x1 PUSH1 0xA0 SHL SUB DUP2 AND DUP2 SUB PUSH2 0xCF JUMPI SWAP1 JUMP INVALID PUSH1 0x80 PUSH1 0x40 DUP2 DUP2 MSTORE PUSH1 0x4 SWAP1 DUP2 CALLDATASIZE LT ISZERO PUSH2 0x16 JUMPI PUSH1 0x0 DUP1 REVERT JUMPDEST PUSH1 0x0 SWAP3 DUP4 CALLDATALOAD PUSH1 0xE0 SHR SWAP1 DUP2 PUSH4 0x542975C EQ PUSH2 0x501 JUMPI POP DUP1 PUSH4 0x1B11D0FF EQ PUSH2 0x343 JUMPI DUP1 PUSH4 0x44004CC1 EQ PUSH2 0x22C JUMPI DUP1 PUSH4 0x7535D246 EQ PUSH2 0x1E8 JUMPI DUP1 PUSH4 0x89A30271 EQ PUSH2 0x1B5 JUMPI PUSH4 0xA87EBA3C EQ PUSH2 0x66 JUMPI PUSH1 0x0 DUP1 REVERT JUMPDEST CALLVALUE PUSH2 0x1B1 JUMPI PUSH1 0x20 SWAP2 PUSH1 0x20 PUSH1 0x3 NOT CALLDATASIZE ADD SLT PUSH2 0x1AD JUMPI DUP2 MLOAD PUSH8 0xFFFFFFFFFFFFFFFF SWAP1 PUSH1 0x20 DUP2 ADD DUP3 DUP2 GT DUP3 DUP3 LT OR PUSH2 0x19A JUMPI DUP5 MSTORE DUP6 DUP2 MSTORE PUSH32 0x0 PUSH1 0x1 PUSH1 0x1 PUSH1 0xA0 SHL SUB AND SWAP1 DUP2 EXTCODESIZE ISZERO PUSH2 0x196 JUMPI SWAP5 DUP7 SWAP2 DUP6 MLOAD SWAP7 DUP8 SWAP3 PUSH4 0x10AC2DDF PUSH1 0xE2 SHL DUP5 MSTORE ADDRESS DUP8 DUP6 ADD MSTORE PUSH20 0xAF88D065E77C8CC2239327C5EDB3A432268E5831 PUSH1 0x24 DUP6 ADD MSTORE DUP7 CALLDATALOAD PUSH1 0x44 DUP6 ADD MSTORE PUSH1 0xA0 PUSH1 0x64 DUP6 ADD MSTORE DUP2 MLOAD SWAP2 DUP3 PUSH1 0xA4 DUP7 ADD MSTORE DUP6 JUMPDEST DUP4 DUP2 LT PUSH2 0x17C JUMPI POP POP POP DUP4 PUSH1 0xC4 DUP5 DUP4 DUP4 DUP4 DUP4 SWAP7 DUP5 ADD ADD MSTORE DUP4 PUSH1 0x84 DUP4 ADD MSTORE PUSH1 0x1F DUP1 NOT SWAP2 ADD AND DUP2 ADD SUB ADD SWAP3 GAS CALL DUP1 ISZERO PUSH2 0x172 JUMPI PUSH2 0x14F JUMPI DUP5 DUP1 RETURN JUMPDEST DUP4 GT PUSH2 0x15F JUMPI POP MSTORE CODESIZE DUP1 DUP1 DUP1 DUP5 DUP1 RETURN JUMPDEST PUSH4 0x4E487B71 PUSH1 0xE0 SHL DUP5 MSTORE PUSH1 0x41 SWAP1 MSTORE PUSH1 0x24 DUP4 REVERT JUMPDEST DUP4 MLOAD RETURNDATASIZE DUP8 DUP3 RETURNDATACOPY RETURNDATASIZE SWAP1 REVERT JUMPDEST DUP2 DUP2 ADD DUP4 ADD MLOAD DUP12 DUP3 ADD PUSH1 0xC4 ADD MSTORE DUP12 SWAP7 POP DUP11 SWAP6 POP DUP3 ADD PUSH2 0x116 JUMP JUMPDEST DUP7 DUP1 REVERT JUMPDEST PUSH4 0x4E487B71 PUSH1 0xE0 SHL DUP8 MSTORE PUSH1 0x41 DUP5 MSTORE PUSH1 0x24 DUP8 REVERT JUMPDEST DUP4 DUP1 REVERT JUMPDEST DUP3 DUP1 REVERT JUMPDEST DUP4 DUP3 CALLVALUE PUSH2 0x1E4 JUMPI DUP2 PUSH1 0x3 NOT CALLDATASIZE ADD SLT PUSH2 0x1E4 JUMPI PUSH1 0x20 SWAP1 MLOAD PUSH20 0xAF88D065E77C8CC2239327C5EDB3A432268E5831 DUP2 MSTORE RETURN JUMPDEST POP DUP1 REVERT JUMPDEST DUP4 DUP3 CALLVALUE PUSH2 0x1E4 JUMPI DUP2 PUSH1 0x3 NOT CALLDATASIZE ADD SLT PUSH2 0x1E4 JUMPI MLOAD PUSH32 0x0 PUSH1 0x1 PUSH1 0x1 PUSH1 0xA0 SHL SUB AND DUP2 MSTORE PUSH1 0x20 SWAP1 RETURN JUMPDEST POP SWAP1 CALLVALUE PUSH2 0x1B1 JUMPI PUSH1 0x60 CALLDATASIZE PUSH1 0x3 NOT ADD SLT PUSH2 0x1B1 JUMPI PUSH2 0x247 PUSH2 0x544 JUMP JUMPDEST PUSH1 0x24 CALLDATALOAD SWAP1 PUSH1 0x1 PUSH1 0x1 PUSH1 0xA0 SHL SUB SWAP1 DUP2 DUP4 AND DUP4 SUB PUSH2 0x33F JUMPI AND SWAP1 PUSH20 0xAF88D065E77C8CC2239327C5EDB3A432268E5831 DUP3 EQ PUSH2 0x2FC JUMPI DUP4 MLOAD PUSH4 0xA9059CBB PUSH1 0xE0 SHL DUP2 MSTORE PUSH1 0x1 PUSH1 0x1 PUSH1 0xA0 SHL SUB SWAP1 SWAP2 AND SWAP3 DUP2 ADD SWAP3 DUP4 MSTORE PUSH1 0x44 CALLDATALOAD PUSH1 0x20 DUP5 DUP2 ADD SWAP2 SWAP1 SWAP2 MSTORE SWAP1 SWAP4 SWAP3 SWAP1 SWAP2 DUP5 SWAP2 DUP3 SWAP1 DUP8 SWAP1 DUP3 SWAP1 PUSH1 0x40 ADD SUB SWAP3 GAS CALL SWAP1 DUP2 ISZERO PUSH2 0x2F3 JUMPI POP PUSH2 0x2C7 JUMPI POP DUP1 RETURN JUMPDEST PUSH2 0x2E8 SWAP1 PUSH1 0x20 RETURNDATASIZE PUSH1 0x20 GT PUSH2 0x2EC JUMPI JUMPDEST PUSH2 0x2E0 DUP2 DUP4 PUSH2 0x55F JUMP JUMPDEST DUP2 ADD SWAP1 PUSH2 0x597 JUMP JUMPDEST POP DUP1 RETURN JUMPDEST POP RETURNDATASIZE PUSH2 0x2D6 JUMP JUMPDEST MLOAD RETURNDATASIZE DUP5 DUP3 RETURNDATACOPY RETURNDATASIZE SWAP1 REVERT JUMPDEST DUP4 MLOAD PUSH3 0x461BCD PUSH1 0xE5 SHL DUP2 MSTORE PUSH1 0x20 DUP2 DUP6 ADD DUP2 SWAP1 MSTORE PUSH1 0x24 DUP3 ADD MSTORE PUSH32 0x43616E6E6F7420776974686472617720666C6173686C6F616E65642055534443 PUSH1 0x44 DUP3 ADD MSTORE PUSH1 0x64 SWAP1 REVERT JUMPDEST DUP6 DUP1 REVERT JUMPDEST POP DUP3 SWAP1 CALLVALUE PUSH2 0x1E4 JUMPI PUSH1 0xA0 CALLDATASIZE PUSH1 0x3 NOT ADD SLT PUSH2 0x1E4 JUMPI PUSH2 0x35F PUSH2 0x544 JUMP JUMPDEST PUSH1 0x24 CALLDATALOAD SWAP1 PUSH1 0x64 CALLDATALOAD PUSH1 0x1 PUSH1 0x1 PUSH1 0xA0 SHL SUB DUP2 DUP2 AND SWAP2 DUP3 SWAP1 SUB PUSH2 0x33F JUMPI PUSH1 0x84 CALLDATALOAD PUSH8 0xFFFFFFFFFFFFFFFF DUP1 DUP3 GT PUSH2 0x4FD JUMPI CALLDATASIZE PUSH1 0x23 DUP4 ADD SLT ISZERO PUSH2 0x4FD JUMPI DUP2 DUP10 ADD CALLDATALOAD SWAP1 DUP2 GT PUSH2 0x4FD JUMPI CALLDATASIZE SWAP2 ADD PUSH1 0x24 ADD GT PUSH2 0x33F JUMPI DUP1 PUSH32 0x0 AND SWAP2 DUP3 CALLER SUB PUSH2 0x4BA JUMPI ADDRESS SUB PUSH2 0x477 JUMPI PUSH1 0x44 CALLDATALOAD DUP5 ADD DUP1 SWAP5 GT PUSH2 0x464 JUMPI DUP5 MLOAD PUSH4 0x95EA7B3 PUSH1 0xE0 SHL DUP2 MSTORE PUSH1 0x1 PUSH1 0x1 PUSH1 0xA0 SHL SUB SWAP3 SWAP1 SWAP3 AND DUP8 DUP4 ADD SWAP1 DUP2 MSTORE PUSH1 0x20 DUP1 DUP3 ADD SWAP6 SWAP1 SWAP6 MSTORE SWAP2 SWAP4 SWAP3 DUP5 SWAP3 DUP4 SWAP1 SUB PUSH1 0x40 ADD SWAP2 DUP4 SWAP2 DUP9 SWAP2 AND GAS CALL DUP1 ISZERO PUSH2 0x458 JUMPI PUSH1 0x20 SWAP4 POP PUSH2 0x43B JUMPI JUMPDEST POP MLOAD PUSH1 0x1 DUP2 MSTORE RETURN JUMPDEST PUSH2 0x451 SWAP1 DUP4 RETURNDATASIZE DUP6 GT PUSH2 0x2EC JUMPI PUSH2 0x2E0 DUP2 DUP4 PUSH2 0x55F JUMP JUMPDEST POP DUP3 PUSH2 0x433 JUMP JUMPDEST POP POP MLOAD SWAP1 RETURNDATASIZE SWAP1 DUP3 RETURNDATACOPY RETURNDATASIZE SWAP1 REVERT JUMPDEST PUSH4 0x4E487B71 PUSH1 0xE0 SHL DUP7 MSTORE PUSH1 0x11 DUP8 MSTORE PUSH1 0x24 DUP7 REVERT JUMPDEST DUP5 MLOAD PUSH3 0x461BCD PUSH1 0xE5 SHL DUP2 MSTORE PUSH1 0x20 DUP2 DUP10 ADD MSTORE PUSH1 0x1F PUSH1 0x24 DUP3 ADD MSTORE PUSH32 0x496E69746961746F72206D757374206265207468697320636F6E747261637400 PUSH1 0x44 DUP3 ADD MSTORE PUSH1 0x64 SWAP1 REVERT JUMPDEST DUP6 MLOAD PUSH3 0x461BCD PUSH1 0xE5 SHL DUP2 MSTORE PUSH1 0x20 DUP2 DUP11 ADD MSTORE PUSH1 0x18 PUSH1 0x24 DUP3 ADD MSTORE PUSH32 0x43616C6C6572206D757374206265204161766520506F6F6C0000000000000000 PUSH1 0x44 DUP3 ADD MSTORE PUSH1 0x64 SWAP1 REVERT JUMPDEST DUP8 DUP1 REVERT JUMPDEST DUP5 SWAP1 CALLVALUE PUSH2 0x1E4 JUMPI DUP2 PUSH1 0x3 NOT CALLDATASIZE ADD SLT PUSH2 0x1E4 JUMPI PUSH32 0x0 PUSH1 0x1 PUSH1 0x1 PUSH1 0xA0 SHL SUB AND DUP2 MSTORE PUSH1 0x20 SWAP1 RETURN JUMPDEST PUSH1 0x4 CALLDATALOAD SWAP1 PUSH1 0x1 PUSH1 0x1 PUSH1 0xA0 SHL SUB DUP3 AND DUP3 SUB PUSH2 0x55A JUMPI JUMP JUMPDEST PUSH1 0x0 DUP1 REVERT JUMPDEST SWAP1 PUSH1 0x1F DUP1 NOT SWAP2 ADD AND DUP2 ADD SWAP1 DUP2 LT PUSH8 0xFFFFFFFFFFFFFFFF DUP3 GT OR PUSH2 0x581 JUMPI PUSH1 0x40 MSTORE JUMP JUMPDEST PUSH4 0x4E487B71 PUSH1 0xE0 SHL PUSH1 0x0 MSTORE PUSH1 0x41 PUSH1 0x4 MSTORE PUSH1 0x24 PUSH1 0x0 REVERT JUMPDEST SWAP1 DUP2 PUSH1 0x20 SWAP2 SUB SLT PUSH2 0x55A JUMPI MLOAD DUP1 ISZERO ISZERO DUP2 SUB PUSH2 0x55A JUMPI SWAP1 JUMP INVALID LOG2 PUSH5 0x6970667358 0x22 SLT KECCAK256 0xBA DUP6 SELFDESTRUCT SWAP1 0xBC CALLVALUE LT 0xE0 ADD DUP9 0xD2 PUSH8 0xA11F9EEBEA3BD288 PUSH5 0x18ABB1B7C2 ADDMOD 0x23 PUSH27 0x7510164736F6C6343000816003300000000000000000000000000 "
        },
        "methodIdentifiers": {
          "ADDRESSES_PROVIDER()": "0542975c",
          "POOL()": "7535d246",
          "USDC()": "89a30271",
          "executeOperation(address,uint256,uint256,address,bytes)": "1b11d0ff",
          "requestFlashLoan(uint256)": "a87eba3c",
          "withdrawERC20(address,address,uint256)": "44004cc1"
        }
      }
    }
  }
}