{
  "contracts/FlashloanArbitrage.sol": {
    "FlashloanArbitrage": {
      "abi": [
        {
          "inputs": [
            {
              "internalType": "address",
              "name": "provider",
              "type": "address"
            },
            {
              "internalType": "address",
              "name": "_swapRouter",
              "type": "address"
            }
          ],
          "stateMutability": "nonpayable",
          "type": "constructor"
        },
        {
          "inputs": [],
          "name": "ADDRESSES_PROVIDER",
          "outputs": [
            {
              "internalType": "contract IPoolAddressesProvider",
              "name": "",
              "type": "address"
            }
          ],
          "stateMutability": "view",
          "type": "function"
        },
        {
          "inputs": [],
          "name": "POOL",
          "outputs": [
            {
              "internalType": "contract IPool",
              "name": "",
              "type": "address"
            }
          ],
          "stateMutability": "view",
          "type": "function"
        },
        {
          "inputs": [],
          "name": "USDC",
          "outputs": [
            {
              "internalType": "address",
              "name": "",
              "type": "address"
            }
          ],
          "stateMutability": "view",
          "type": "function"
        },
        {
          "inputs": [],
          "name": "WETH",
          "outputs": [
            {
              "internalType": "address",
              "name": "",
              "type": "address"
            }
          ],
          "stateMutability": "view",
          "type": "function"
        },
        {
          "inputs": [
            {
              "internalType": "address",
              "name": "asset",
              "type": "address"
            },
            {
              "internalType": "uint256",
              "name": "amount",
              "type": "uint256"
            },
            {
              "internalType": "uint256",
              "name": "premium",
              "type": "uint256"
            },
            {
              "internalType": "address",
              "name": "initiator",
              "type": "address"
            },
            {
              "internalType": "bytes",
              "name": "params",
              "type": "bytes"
            }
          ],
          "name": "executeOperation",
          "outputs": [
            {
              "internalType": "bool",
              "name": "",
              "type": "bool"
            }
          ],
          "stateMutability": "nonpayable",
          "type": "function"
        },
        {
          "inputs": [
            {
              "internalType": "uint256",
              "name": "amount",
              "type": "uint256"
            }
          ],
          "name": "requestFlashLoan",
          "outputs": [],
          "stateMutability": "nonpayable",
          "type": "function"
        },
        {
          "inputs": [],
          "name": "swapRouter",
          "outputs": [
            {
              "internalType": "contract ISwapRouter",
              "name": "",
              "type": "address"
            }
          ],
          "stateMutability": "view",
          "type": "function"
        }
      ],
      "evm": {
        "bytecode": {
          "linkReferences": {},
          "object": "60e080604052346100f3576040816109f6803803809161001f828561010c565b8339810103126100f35761003e602061003783610145565b9201610145565b6001600160a01b03918216608081905260405163026b1d5f60e01b815290602090829060049082905afa80156101005783916000916100bf575b501660a0521660c05260405161089c908161015a82396080518161075e015260a05181818161011f0152818161027c015261031b015260c0518181816085015261034b0152f35b9150506020813d6020116100f8575b816100db6020938361010c565b810103126100f3576100ed8391610145565b38610078565b600080fd5b3d91506100ce565b6040513d6000823e3d90fd5b601f909101601f19168101906001600160401b0382119082101761012f57604052565b634e487b7160e01b600052604160045260246000fd5b51906001600160a01b03821682036100f35756fe608060408181526004918236101561001657600080fd5b600092833560e01c9182630542975c1461074a575081631b11d0ff146102ab5781637535d2461461026757816389a3027114610238578163a87eba3c146100e657508063ad5c4648146100b85763c31c9c071461007257600080fd5b346100b457816003193601126100b457517f00000000000000000000000000000000000000000000000000000000000000006001600160a01b03168152602090f35b5080fd5b50346100b457816003193601126100b457602090517382af49447d8a07e3bd95bd0d56f35241523fbab18152f35b9190503461023457602091602060031936011261023057815167ffffffffffffffff90602081018281118282101761021d5784528581527f00000000000000000000000000000000000000000000000000000000000000006001600160a01b031690813b156102195794869185519687926310ac2ddf60e21b8452308785015273af88d065e77c8cc2239327c5edb3a432268e583160248501528635604485015260a060648501528151918260a4860152855b8381106101ff575050508360c484838383839684010152836084830152601f801991011681010301925af180156101f5576101d2578480f35b83116101e2575052388080808480f35b634e487b7160e01b845260419052602483fd5b83513d87823e3d90fd5b8181018301518b820160c401528b96508a95508201610199565b8680fd5b634e487b7160e01b875260418452602487fd5b8380fd5b8280fd5b5050346100b457816003193601126100b4576020905173af88d065e77c8cc2239327c5edb3a432268e58318152f35b5050346100b457816003193601126100b457517f00000000000000000000000000000000000000000000000000000000000000006001600160a01b03168152602090f35b8284346107475760a0366003190112610747576001600160a01b039083358281160361074757602491823592606435918083168093036102305760843567ffffffffffffffff808211610743573660238301121561074357818901359081116107435736910183011161023057807f000000000000000000000000000000000000000000000000000000000000000016928333036107015730036106bf577f0000000000000000000000000000000000000000000000000000000000000000169585519163095ea7b360e01b90818452602098846103a1898387840160209093929193604081019460018060a01b031681520152565b03948a8173af88d065e77c8cc2239327c5edb3a432268e583197818b8a5af180156106b557908a9291610698575b508461043f8a8d85516103e18161078d565b8a81528c7382af49447d8a07e3bd95bd0d56f35241523fbab19788848401526101f494858285015230606085015242608085015260a08401528160c08401528160e084015251808096819463414bf38960e01b998a845283016107ff565b0391885af191821561068e57908e858f94938b8f918c90839761064e575b5096519687526001600160a01b0390921691860191825260208201859052939492938391829081906040015b03918a5af1801561064457918f9593918f906104ed989694610627575b508051956104b38761078d565b86528b8787015285015230606085015242608085015260a08401528a60c08401528a60e08401528a8d5180968195829483528b83016107ff565b03925af190811561061d5787916105f0575b5060443588018098116105de578711610591575086519081526001600160a01b03909316908301908152602081019490945290928591849182908590829060400103925af19081156105865750610559575b505160018152f35b61057890833d851161057f575b61057081836107c0565b8101906107e2565b5082610551565b503d610566565b8351903d90823e3d90fd5b8260236084928b8b519362461bcd60e51b85528401528201527f417262697472616765206661696c65643a20496e73756666696369656e74205560448201526253444360e81b6064820152fd5b50634e487b7160e01b86526011835285fd5b90508981813d8311610616575b61060781836107c0565b8101031261021957518a6104ff565b503d6105fd565b89513d89823e3d90fd5b61063d90883d8a1161057f5761057081836107c0565b50386104a6565b8e513d8e823e3d90fd5b96505050505090925081813d8311610687575b61066b81836107c0565b8101031261068357518c918e858d8b8b61048961045d565b8a80fd5b503d610661565b8d513d8d823e3d90fd5b6106ae908c8d3d1061057f5761057081836107c0565b508b6103cf565b8a513d8a823e3d90fd5b855162461bcd60e51b8152602081890152601f818401527f496e69746961746f72206d757374206265207468697320636f6e7472616374006044820152606490fd5b865162461bcd60e51b81526020818a01526018818501527f43616c6c6572206d757374206265204161766520506f6f6c00000000000000006044820152606490fd5b8580fd5b80fd5b8490346100b457816003193601126100b4577f00000000000000000000000000000000000000000000000000000000000000006001600160a01b03168152602090f35b610100810190811067ffffffffffffffff8211176107aa57604052565b634e487b7160e01b600052604160045260246000fd5b90601f8019910116810190811067ffffffffffffffff8211176107aa57604052565b908160209103126107fa575180151581036107fa5790565b600080fd5b91909160e06101008201938160018060a01b039182815116855282602082015116602086015262ffffff60408201511660408601528260608201511660608601526080810151608086015260a081015160a086015260c081015160c086015201511691015256fea26469706673582212209090686694a0f057dd09c76a9db27c6887b4ac6f1fd9971df878712f97defc1e64736f6c63430008160033",
          "opcodes": "PUSH1 0xE0 DUP1 PUSH1 0x40 MSTORE CALLVALUE PUSH2 0xF3 JUMPI PUSH1 0x40 DUP2 PUSH2 0x9F6 DUP1 CODESIZE SUB DUP1 SWAP2 PUSH2 0x1F DUP3 DUP6 PUSH2 0x10C JUMP JUMPDEST DUP4 CODECOPY DUP2 ADD SUB SLT PUSH2 0xF3 JUMPI PUSH2 0x3E PUSH1 0x20 PUSH2 0x37 DUP4 PUSH2 0x145 JUMP JUMPDEST SWAP3 ADD PUSH2 0x145 JUMP JUMPDEST PUSH1 0x1 PUSH1 0x1 PUSH1 0xA0 SHL SUB SWAP2 DUP3 AND PUSH1 0x80 DUP2 SWAP1 MSTORE PUSH1 0x40 MLOAD PUSH4 0x26B1D5F PUSH1 0xE0 SHL DUP2 MSTORE SWAP1 PUSH1 0x20 SWAP1 DUP3 SWAP1 PUSH1 0x4 SWAP1 DUP3 SWAP1 GAS STATICCALL DUP1 ISZERO PUSH2 0x100 JUMPI DUP4 SWAP2 PUSH1 0x0 SWAP2 PUSH2 0xBF JUMPI JUMPDEST POP AND PUSH1 0xA0 MSTORE AND PUSH1 0xC0 MSTORE PUSH1 0x40 MLOAD PUSH2 0x89C SWAP1 DUP2 PUSH2 0x15A DUP3 CODECOPY PUSH1 0x80 MLOAD DUP2 PUSH2 0x75E ADD MSTORE PUSH1 0xA0 MLOAD DUP2 DUP2 DUP2 PUSH2 0x11F ADD MSTORE DUP2 DUP2 PUSH2 0x27C ADD MSTORE PUSH2 0x31B ADD MSTORE PUSH1 0xC0 MLOAD DUP2 DUP2 DUP2 PUSH1 0x85 ADD MSTORE PUSH2 0x34B ADD MSTORE RETURN JUMPDEST SWAP2 POP POP PUSH1 0x20 DUP2 RETURNDATASIZE PUSH1 0x20 GT PUSH2 0xF8 JUMPI JUMPDEST DUP2 PUSH2 0xDB PUSH1 0x20 SWAP4 DUP4 PUSH2 0x10C JUMP JUMPDEST DUP2 ADD SUB SLT PUSH2 0xF3 JUMPI PUSH2 0xED DUP4 SWAP2 PUSH2 0x145 JUMP JUMPDEST CODESIZE PUSH2 0x78 JUMP JUMPDEST PUSH1 0x0 DUP1 REVERT JUMPDEST RETURNDATASIZE SWAP2 POP PUSH2 0xCE JUMP JUMPDEST PUSH1 0x40 MLOAD RETURNDATASIZE PUSH1 0x0 DUP3 RETURNDATACOPY RETURNDATASIZE SWAP1 REVERT JUMPDEST PUSH1 0x1F SWAP1 SWAP2 ADD PUSH1 0x1F NOT AND DUP2 ADD SWAP1 PUSH1 0x1 PUSH1 0x1 PUSH1 0x40 SHL SUB DUP3 GT SWAP1 DUP3 LT OR PUSH2 0x12F JUMPI PUSH1 0x40 MSTORE JUMP JUMPDEST PUSH4 0x4E487B71 PUSH1 0xE0 SHL PUSH1 0x0 MSTORE PUSH1 0x41 PUSH1 0x4 MSTORE PUSH1 0x24 PUSH1 0x0 REVERT JUMPDEST MLOAD SWAP1 PUSH1 0x1 PUSH1 0x1 PUSH1 0xA0 SHL SUB DUP3 AND DUP3 SUB PUSH2 0xF3 JUMPI JUMP INVALID PUSH1 0x80 PUSH1 0x40 DUP2 DUP2 MSTORE PUSH1 0x4 SWAP2 DUP3 CALLDATASIZE LT ISZERO PUSH2 0x16 JUMPI PUSH1 0x0 DUP1 REVERT JUMPDEST PUSH1 0x0 SWAP3 DUP4 CALLDATALOAD PUSH1 0xE0 SHR SWAP2 DUP3 PUSH4 0x542975C EQ PUSH2 0x74A JUMPI POP DUP2 PUSH4 0x1B11D0FF EQ PUSH2 0x2AB JUMPI DUP2 PUSH4 0x7535D246 EQ PUSH2 0x267 JUMPI DUP2 PUSH4 0x89A30271 EQ PUSH2 0x238 JUMPI DUP2 PUSH4 0xA87EBA3C EQ PUSH2 0xE6 JUMPI POP DUP1 PUSH4 0xAD5C4648 EQ PUSH2 0xB8 JUMPI PUSH4 0xC31C9C07 EQ PUSH2 0x72 JUMPI PUSH1 0x0 DUP1 REVERT JUMPDEST CALLVALUE PUSH2 0xB4 JUMPI DUP2 PUSH1 0x3 NOT CALLDATASIZE ADD SLT PUSH2 0xB4 JUMPI MLOAD PUSH32 0x0 PUSH1 0x1 PUSH1 0x1 PUSH1 0xA0 SHL SUB AND DUP2 MSTORE PUSH1 0x20 SWAP1 RETURN JUMPDEST POP DUP1 REVERT JUMPDEST POP CALLVALUE PUSH2 0xB4 JUMPI DUP2 PUSH1 0x3 NOT CALLDATASIZE ADD SLT PUSH2 0xB4 JUMPI PUSH1 0x20 SWAP1 MLOAD PUSH20 0x82AF49447D8A07E3BD95BD0D56F35241523FBAB1 DUP2 MSTORE RETURN JUMPDEST SWAP2 SWAP1 POP CALLVALUE PUSH2 0x234 JUMPI PUSH1 0x20 SWAP2 PUSH1 0x20 PUSH1 0x3 NOT CALLDATASIZE ADD SLT PUSH2 0x230 JUMPI DUP2 MLOAD PUSH8 0xFFFFFFFFFFFFFFFF SWAP1 PUSH1 0x20 DUP2 ADD DUP3 DUP2 GT DUP3 DUP3 LT OR PUSH2 0x21D JUMPI DUP5 MSTORE DUP6 DUP2 MSTORE PUSH32 0x0 PUSH1 0x1 PUSH1 0x1 PUSH1 0xA0 SHL SUB AND SWAP1 DUP2 EXTCODESIZE ISZERO PUSH2 0x219 JUMPI SWAP5 DUP7 SWAP2 DUP6 MLOAD SWAP7 DUP8 SWAP3 PUSH4 0x10AC2DDF PUSH1 0xE2 SHL DUP5 MSTORE ADDRESS DUP8 DUP6 ADD MSTORE PUSH20 0xAF88D065E77C8CC2239327C5EDB3A432268E5831 PUSH1 0x24 DUP6 ADD MSTORE DUP7 CALLDATALOAD PUSH1 0x44 DUP6 ADD MSTORE PUSH1 0xA0 PUSH1 0x64 DUP6 ADD MSTORE DUP2 MLOAD SWAP2 DUP3 PUSH1 0xA4 DUP7 ADD MSTORE DUP6 JUMPDEST DUP4 DUP2 LT PUSH2 0x1FF JUMPI POP POP POP DUP4 PUSH1 0xC4 DUP5 DUP4 DUP4 DUP4 DUP4 SWAP7 DUP5 ADD ADD MSTORE DUP4 PUSH1 0x84 DUP4 ADD MSTORE PUSH1 0x1F DUP1 NOT SWAP2 ADD AND DUP2 ADD SUB ADD SWAP3 GAS CALL DUP1 ISZERO PUSH2 0x1F5 JUMPI PUSH2 0x1D2 JUMPI DUP5 DUP1 RETURN JUMPDEST DUP4 GT PUSH2 0x1E2 JUMPI POP MSTORE CODESIZE DUP1 DUP1 DUP1 DUP5 DUP1 RETURN JUMPDEST PUSH4 0x4E487B71 PUSH1 0xE0 SHL DUP5 MSTORE PUSH1 0x41 SWAP1 MSTORE PUSH1 0x24 DUP4 REVERT JUMPDEST DUP4 MLOAD RETURNDATASIZE DUP8 DUP3 RETURNDATACOPY RETURNDATASIZE SWAP1 REVERT JUMPDEST DUP2 DUP2 ADD DUP4 ADD MLOAD DUP12 DUP3 ADD PUSH1 0xC4 ADD MSTORE DUP12 SWAP7 POP DUP11 SWAP6 POP DUP3 ADD PUSH2 0x199 JUMP JUMPDEST DUP7 DUP1 REVERT JUMPDEST PUSH4 0x4E487B71 PUSH1 0xE0 SHL DUP8 MSTORE PUSH1 0x41 DUP5 MSTORE PUSH1 0x24 DUP8 REVERT JUMPDEST DUP4 DUP1 REVERT JUMPDEST DUP3 DUP1 REVERT JUMPDEST POP POP CALLVALUE PUSH2 0xB4 JUMPI DUP2 PUSH1 0x3 NOT CALLDATASIZE ADD SLT PUSH2 0xB4 JUMPI PUSH1 0x20 SWAP1 MLOAD PUSH20 0xAF88D065E77C8CC2239327C5EDB3A432268E5831 DUP2 MSTORE RETURN JUMPDEST POP POP CALLVALUE PUSH2 0xB4 JUMPI DUP2 PUSH1 0x3 NOT CALLDATASIZE ADD SLT PUSH2 0xB4 JUMPI MLOAD PUSH32 0x0 PUSH1 0x1 PUSH1 0x1 PUSH1 0xA0 SHL SUB AND DUP2 MSTORE PUSH1 0x20 SWAP1 RETURN JUMPDEST DUP3 DUP5 CALLVALUE PUSH2 0x747 JUMPI PUSH1 0xA0 CALLDATASIZE PUSH1 0x3 NOT ADD SLT PUSH2 0x747 JUMPI PUSH1 0x1 PUSH1 0x1 PUSH1 0xA0 SHL SUB SWAP1 DUP4 CALLDATALOAD DUP3 DUP2 AND SUB PUSH2 0x747 JUMPI PUSH1 0x24 SWAP2 DUP3 CALLDATALOAD SWAP3 PUSH1 0x64 CALLDATALOAD SWAP2 DUP1 DUP4 AND DUP1 SWAP4 SUB PUSH2 0x230 JUMPI PUSH1 0x84 CALLDATALOAD PUSH8 0xFFFFFFFFFFFFFFFF DUP1 DUP3 GT PUSH2 0x743 JUMPI CALLDATASIZE PUSH1 0x23 DUP4 ADD SLT ISZERO PUSH2 0x743 JUMPI DUP2 DUP10 ADD CALLDATALOAD SWAP1 DUP2 GT PUSH2 0x743 JUMPI CALLDATASIZE SWAP2 ADD DUP4 ADD GT PUSH2 0x230 JUMPI DUP1 PUSH32 0x0 AND SWAP3 DUP4 CALLER SUB PUSH2 0x701 JUMPI ADDRESS SUB PUSH2 0x6BF JUMPI PUSH32 0x0 AND SWAP6 DUP6 MLOAD SWAP2 PUSH4 0x95EA7B3 PUSH1 0xE0 SHL SWAP1 DUP2 DUP5 MSTORE PUSH1 0x20 SWAP9 DUP5 PUSH2 0x3A1 DUP10 DUP4 DUP8 DUP5 ADD PUSH1 0x20 SWAP1 SWAP4 SWAP3 SWAP2 SWAP4 PUSH1 0x40 DUP2 ADD SWAP5 PUSH1 0x1 DUP1 PUSH1 0xA0 SHL SUB AND DUP2 MSTORE ADD MSTORE JUMP JUMPDEST SUB SWAP5 DUP11 DUP2 PUSH20 0xAF88D065E77C8CC2239327C5EDB3A432268E5831 SWAP8 DUP2 DUP12 DUP11 GAS CALL DUP1 ISZERO PUSH2 0x6B5 JUMPI SWAP1 DUP11 SWAP3 SWAP2 PUSH2 0x698 JUMPI JUMPDEST POP DUP5 PUSH2 0x43F DUP11 DUP14 DUP6 MLOAD PUSH2 0x3E1 DUP2 PUSH2 0x78D JUMP JUMPDEST DUP11 DUP2 MSTORE DUP13 PUSH20 0x82AF49447D8A07E3BD95BD0D56F35241523FBAB1 SWAP8 DUP9 DUP5 DUP5 ADD MSTORE PUSH2 0x1F4 SWAP5 DUP6 DUP3 DUP6 ADD MSTORE ADDRESS PUSH1 0x60 DUP6 ADD MSTORE TIMESTAMP PUSH1 0x80 DUP6 ADD MSTORE PUSH1 0xA0 DUP5 ADD MSTORE DUP2 PUSH1 0xC0 DUP5 ADD MSTORE DUP2 PUSH1 0xE0 DUP5 ADD MSTORE MLOAD DUP1 DUP1 SWAP7 DUP2 SWAP5 PUSH4 0x414BF389 PUSH1 0xE0 SHL SWAP10 DUP11 DUP5 MSTORE DUP4 ADD PUSH2 0x7FF JUMP JUMPDEST SUB SWAP2 DUP9 GAS CALL SWAP2 DUP3 ISZERO PUSH2 0x68E JUMPI SWAP1 DUP15 DUP6 DUP16 SWAP5 SWAP4 DUP12 DUP16 SWAP2 DUP13 SWAP1 DUP4 SWAP8 PUSH2 0x64E JUMPI JUMPDEST POP SWAP7 MLOAD SWAP7 DUP8 MSTORE PUSH1 0x1 PUSH1 0x1 PUSH1 0xA0 SHL SUB SWAP1 SWAP3 AND SWAP2 DUP7 ADD SWAP2 DUP3 MSTORE PUSH1 0x20 DUP3 ADD DUP6 SWAP1 MSTORE SWAP4 SWAP5 SWAP3 SWAP4 DUP4 SWAP2 DUP3 SWAP1 DUP2 SWAP1 PUSH1 0x40 ADD JUMPDEST SUB SWAP2 DUP11 GAS CALL DUP1 ISZERO PUSH2 0x644 JUMPI SWAP2 DUP16 SWAP6 SWAP4 SWAP2 DUP16 SWAP1 PUSH2 0x4ED SWAP9 SWAP7 SWAP5 PUSH2 0x627 JUMPI JUMPDEST POP DUP1 MLOAD SWAP6 PUSH2 0x4B3 DUP8 PUSH2 0x78D JUMP JUMPDEST DUP7 MSTORE DUP12 DUP8 DUP8 ADD MSTORE DUP6 ADD MSTORE ADDRESS PUSH1 0x60 DUP6 ADD MSTORE TIMESTAMP PUSH1 0x80 DUP6 ADD MSTORE PUSH1 0xA0 DUP5 ADD MSTORE DUP11 PUSH1 0xC0 DUP5 ADD MSTORE DUP11 PUSH1 0xE0 DUP5 ADD MSTORE DUP11 DUP14 MLOAD DUP1 SWAP7 DUP2 SWAP6 DUP3 SWAP5 DUP4 MSTORE DUP12 DUP4 ADD PUSH2 0x7FF JUMP JUMPDEST SUB SWAP3 GAS CALL SWAP1 DUP2 ISZERO PUSH2 0x61D JUMPI DUP8 SWAP2 PUSH2 0x5F0 JUMPI JUMPDEST POP PUSH1 0x44 CALLDATALOAD DUP9 ADD DUP1 SWAP9 GT PUSH2 0x5DE JUMPI DUP8 GT PUSH2 0x591 JUMPI POP DUP7 MLOAD SWAP1 DUP2 MSTORE PUSH1 0x1 PUSH1 0x1 PUSH1 0xA0 SHL SUB SWAP1 SWAP4 AND SWAP1 DUP4 ADD SWAP1 DUP2 MSTORE PUSH1 0x20 DUP2 ADD SWAP5 SWAP1 SWAP5 MSTORE SWAP1 SWAP3 DUP6 SWAP2 DUP5 SWAP2 DUP3 SWAP1 DUP6 SWAP1 DUP3 SWAP1 PUSH1 0x40 ADD SUB SWAP3 GAS CALL SWAP1 DUP2 ISZERO PUSH2 0x586 JUMPI POP PUSH2 0x559 JUMPI JUMPDEST POP MLOAD PUSH1 0x1 DUP2 MSTORE RETURN JUMPDEST PUSH2 0x578 SWAP1 DUP4 RETURNDATASIZE DUP6 GT PUSH2 0x57F JUMPI JUMPDEST PUSH2 0x570 DUP2 DUP4 PUSH2 0x7C0 JUMP JUMPDEST DUP2 ADD SWAP1 PUSH2 0x7E2 JUMP JUMPDEST POP DUP3 PUSH2 0x551 JUMP JUMPDEST POP RETURNDATASIZE PUSH2 0x566 JUMP JUMPDEST DUP4 MLOAD SWAP1 RETURNDATASIZE SWAP1 DUP3 RETURNDATACOPY RETURNDATASIZE SWAP1 REVERT JUMPDEST DUP3 PUSH1 0x23 PUSH1 0x84 SWAP3 DUP12 DUP12 MLOAD SWAP4 PUSH3 0x461BCD PUSH1 0xE5 SHL DUP6 MSTORE DUP5 ADD MSTORE DUP3 ADD MSTORE PUSH32 0x417262697472616765206661696C65643A20496E73756666696369656E742055 PUSH1 0x44 DUP3 ADD MSTORE PUSH3 0x534443 PUSH1 0xE8 SHL PUSH1 0x64 DUP3 ADD MSTORE REVERT JUMPDEST POP PUSH4 0x4E487B71 PUSH1 0xE0 SHL DUP7 MSTORE PUSH1 0x11 DUP4 MSTORE DUP6 REVERT JUMPDEST SWAP1 POP DUP10 DUP2 DUP2 RETURNDATASIZE DUP4 GT PUSH2 0x616 JUMPI JUMPDEST PUSH2 0x607 DUP2 DUP4 PUSH2 0x7C0 JUMP JUMPDEST DUP2 ADD SUB SLT PUSH2 0x219 JUMPI MLOAD DUP11 PUSH2 0x4FF JUMP JUMPDEST POP RETURNDATASIZE PUSH2 0x5FD JUMP JUMPDEST DUP10 MLOAD RETURNDATASIZE DUP10 DUP3 RETURNDATACOPY RETURNDATASIZE SWAP1 REVERT JUMPDEST PUSH2 0x63D SWAP1 DUP9 RETURNDATASIZE DUP11 GT PUSH2 0x57F JUMPI PUSH2 0x570 DUP2 DUP4 PUSH2 0x7C0 JUMP JUMPDEST POP CODESIZE PUSH2 0x4A6 JUMP JUMPDEST DUP15 MLOAD RETURNDATASIZE DUP15 DUP3 RETURNDATACOPY RETURNDATASIZE SWAP1 REVERT JUMPDEST SWAP7 POP POP POP POP POP SWAP1 SWAP3 POP DUP2 DUP2 RETURNDATASIZE DUP4 GT PUSH2 0x687 JUMPI JUMPDEST PUSH2 0x66B DUP2 DUP4 PUSH2 0x7C0 JUMP JUMPDEST DUP2 ADD SUB SLT PUSH2 0x683 JUMPI MLOAD DUP13 SWAP2 DUP15 DUP6 DUP14 DUP12 DUP12 PUSH2 0x489 PUSH2 0x45D JUMP JUMPDEST DUP11 DUP1 REVERT JUMPDEST POP RETURNDATASIZE PUSH2 0x661 JUMP JUMPDEST DUP14 MLOAD RETURNDATASIZE DUP14 DUP3 RETURNDATACOPY RETURNDATASIZE SWAP1 REVERT JUMPDEST PUSH2 0x6AE SWAP1 DUP13 DUP14 RETURNDATASIZE LT PUSH2 0x57F JUMPI PUSH2 0x570 DUP2 DUP4 PUSH2 0x7C0 JUMP JUMPDEST POP DUP12 PUSH2 0x3CF JUMP JUMPDEST DUP11 MLOAD RETURNDATASIZE DUP11 DUP3 RETURNDATACOPY RETURNDATASIZE SWAP1 REVERT JUMPDEST DUP6 MLOAD PUSH3 0x461BCD PUSH1 0xE5 SHL DUP2 MSTORE PUSH1 0x20 DUP2 DUP10 ADD MSTORE PUSH1 0x1F DUP2 DUP5 ADD MSTORE PUSH32 0x496E69746961746F72206D757374206265207468697320636F6E747261637400 PUSH1 0x44 DUP3 ADD MSTORE PUSH1 0x64 SWAP1 REVERT JUMPDEST DUP7 MLOAD PUSH3 0x461BCD PUSH1 0xE5 SHL DUP2 MSTORE PUSH1 0x20 DUP2 DUP11 ADD MSTORE PUSH1 0x18 DUP2 DUP6 ADD MSTORE PUSH32 0x43616C6C6572206D757374206265204161766520506F6F6C0000000000000000 PUSH1 0x44 DUP3 ADD MSTORE PUSH1 0x64 SWAP1 REVERT JUMPDEST DUP6 DUP1 REVERT JUMPDEST DUP1 REVERT JUMPDEST DUP5 SWAP1 CALLVALUE PUSH2 0xB4 JUMPI DUP2 PUSH1 0x3 NOT CALLDATASIZE ADD SLT PUSH2 0xB4 JUMPI PUSH32 0x0 PUSH1 0x1 PUSH1 0x1 PUSH1 0xA0 SHL SUB AND DUP2 MSTORE PUSH1 0x20 SWAP1 RETURN JUMPDEST PUSH2 0x100 DUP2 ADD SWAP1 DUP2 LT PUSH8 0xFFFFFFFFFFFFFFFF DUP3 GT OR PUSH2 0x7AA JUMPI PUSH1 0x40 MSTORE JUMP JUMPDEST PUSH4 0x4E487B71 PUSH1 0xE0 SHL PUSH1 0x0 MSTORE PUSH1 0x41 PUSH1 0x4 MSTORE PUSH1 0x24 PUSH1 0x0 REVERT JUMPDEST SWAP1 PUSH1 0x1F DUP1 NOT SWAP2 ADD AND DUP2 ADD SWAP1 DUP2 LT PUSH8 0xFFFFFFFFFFFFFFFF DUP3 GT OR PUSH2 0x7AA JUMPI PUSH1 0x40 MSTORE JUMP JUMPDEST SWAP1 DUP2 PUSH1 0x20 SWAP2 SUB SLT PUSH2 0x7FA JUMPI MLOAD DUP1 ISZERO ISZERO DUP2 SUB PUSH2 0x7FA JUMPI SWAP1 JUMP JUMPDEST PUSH1 0x0 DUP1 REVERT JUMPDEST SWAP2 SWAP1 SWAP2 PUSH1 0xE0 PUSH2 0x100 DUP3 ADD SWAP4 DUP2 PUSH1 0x1 DUP1 PUSH1 0xA0 SHL SUB SWAP2 DUP3 DUP2 MLOAD AND DUP6 MSTORE DUP3 PUSH1 0x20 DUP3 ADD MLOAD AND PUSH1 0x20 DUP7 ADD MSTORE PUSH3 0xFFFFFF PUSH1 0x40 DUP3 ADD MLOAD AND PUSH1 0x40 DUP7 ADD MSTORE DUP3 PUSH1 0x60 DUP3 ADD MLOAD AND PUSH1 0x60 DUP7 ADD MSTORE PUSH1 0x80 DUP2 ADD MLOAD PUSH1 0x80 DUP7 ADD MSTORE PUSH1 0xA0 DUP2 ADD MLOAD PUSH1 0xA0 DUP7 ADD MSTORE PUSH1 0xC0 DUP2 ADD MLOAD PUSH1 0xC0 DUP7 ADD MSTORE ADD MLOAD AND SWAP2 ADD MSTORE JUMP INVALID LOG2 PUSH5 0x6970667358 0x22 SLT KECCAK256 SWAP1 SWAP1 PUSH9 0x6694A0F057DD09C76A SWAP14 0xB2 PUSH29 0x6887B4AC6F1FD9971DF878712F97DEFC1E64736F6C6343000816003300 "
        },
        "methodIdentifiers": {
          "ADDRESSES_PROVIDER()": "0542975c",
          "POOL()": "7535d246",
          "USDC()": "89a30271",
          "WETH()": "ad5c4648",
          "executeOperation(address,uint256,uint256,address,bytes)": "1b11d0ff",
          "requestFlashLoan(uint256)": "a87eba3c",
          "swapRouter()": "c31c9c07"
        }
      }
    }
  }
}